:10000000A3C00000BCC00000BAC00000B8C000001F
:10001000B6C00000B4C00000B2C00000B0C0000014
:10002000AEC00000ACC00000AAC0000076C3000053
:10003000D4C30000A4C00000A2C00000A0C0000003
:100040009EC000009CC000009AC0000098C0000044
:1000500096C0000094C0000092C0000090C0000054
:100060008EC000008CC000008AC0000088C0000064
:1000700086C0000000010000AB001200020000BDBD
:10008000002200220000DF003F00210000CF000915
:10009000000300001E0104010309042201100203F1
:1000A0000904340112000001C126001201000200FF
:1000B000000020C0167E0400010102000109022296
:1000C00000010100C0320904000001030001000921
:1000D0002111010001223F000705830320000105D3
:1000E000010906A101050719E029E7150025017599
:1000F00001950881027508950181030508190129F8
:100100000575019505910275039501910305071980
:100110000029FF150025FF7508951E8100C0040306
:10012000090410034D00660067004E0061006D0079
:100130006500000012034B006500790062006F004B
:10014000610072006400000011241FBECFEFD2E0F6
:10015000DEBFCDBF11E0A0E0B1E0E4E0FBE002C013
:1001600005900D92A230B107D9F711E0A2E0B1E0FD
:1001700001C01D92AB33B107E1F75CD1C1C440CFE0
:1001800082E2809325018EE1809326018FE48093A3
:10019000270180E58093280182E58093290181E58C
:1001A00080932A0180EE80932B0182EE80932C01B4
:1001B0008CE280932D0181EE80932E018DE180935E
:1001C0002F018BE18093300186E08093310189E13A
:1001D0008093320188E28093330183E1809334017C
:1001E00080E48093350185E3809336018BE2809330
:1001F000370189E280933801089582E280932501D6
:100200008EE1809326018FE48093270180E580931F
:10021000280182E58093290181E580932A0180EEFF
:1002200080932B0182EE80932C018CE280932D0130
:1002300088E280932E0183E280932F018FE18093E7
:1002400030018AE08093310187E08093320185E1BB
:100250008093330189E08093340184E080933501F9
:1002600086E18093360184E18093370189E28093AF
:100270003801089584E08093250185E0809326016C
:1002800086E08093270187E08093280188E08093AF
:10029000290189E080932A018AE080932B018BE079
:1002A00080932C018CE080932D018DE080932E01B2
:1002B0008EE080932F018FE08093300180E1809366
:1002C000310181E18093320182E18093330183E146
:1002D0008093340184E18093350185E18093360178
:1002E00086E18093370189E280933801089582E2A4
:1002F000809325018EE1809326018FE4809327016E
:1003000080E58093280182E58093290181E580932F
:100310002A0180EE80932B0184EE80932C018CE2E5
:1003200080932D0181EE80932E018DE180932F012A
:1003300085EE8093300188E38093310184E18093DE
:10034000320188E28093330188E48093340184E0B1
:100350008093350184E3809336018BE280933701EB
:1003600089E280933801089580913A01823039F012
:10037000833040F0833021F0843021F402C03DCF3F
:1003800079CFB5CFFDCE1F9380913A01823069F0CD
:10039000833018F4813099F403C0833081F40AC0AB
:1003A00082E080933A0112E00EC083E080933A012C
:1003B00013E009C084E080933A0114E004C081E0B6
:1003C00080933A0111E081E090E060913A018AD394
:1003D00080E197E220E931E0F9013197F1F70197E7
:1003E000D9F7C2DF80E68AB920E060E440E951E055
:1003F00030E26BB980ED97E0FA013197F1F70197A0
:10040000D9F73BB980ED97E0FA013197F1F7019701
:10041000D9F72F5F211768F31AB88FEF8BB988E8E7
:1004200093E120E931E0F9013197F1F70197D9F72C
:100430001F910895FF920F931F93CF93DF9320E8AE
:10044000209361001092610014B817B81AB88FEFAA
:1004500085B988B98BB980E090E00FB6F894209305
:100460006100809361000FBE84B7877F84BF88E1FD
:100470000FB6F89480936000109260000FBE81E088
:1004800090E028D380933A016FDFF8D00BD1882316
:10049000E9F380E197E220E931E0F9013197F1F7E2
:1004A0000197D9F78FEF9FEF2FEFC0E4DFE1F3B0B3
:1004B00006B119B1F81629F4091719F4121709F43D
:1004C000D7C03F2DF1FE02C090E005C0809125010C
:1004D0008093030191E030FD08C0E92FF0E0ED5F6B
:1004E000FE4F8091260180839F5F212F16FD08C05B
:1004F000E92FF0E0ED5FFE4F8091270180839F5F41
:1005000025FD08C0E92FF0E0ED5FFE4F8091280146
:1005100080839F5F24FD08C0E92FF0E0ED5FFE4F70
:100520008091290180839F5F23FD08C0E92FF0E0BF
:10053000ED5FFE4F80912A0180839F5F22FD08C0FE
:10054000E92FF0E0ED5FFE4F80912B0180839F5FEC
:1005500021FD08C0E92FF0E0ED5FFE4F80912C01F6
:1005600080839F5F20FD08C0E92FF0E0ED5FFE4F24
:1005700080912D0180839F5F202F02FD08C0E92F0D
:10058000F0E0ED5FFE4F80912E0180839F5F24FDA0
:1005900008C0E92FF0E0ED5FFE4F80912F018083CE
:1005A0009F5F25FD08C0E92FF0E0ED5FFE4F8091D1
:1005B000300180839F5F26FD08C0E92FF0E0ED5FEA
:1005C000FE4F8091310180839F5F07FD08C0E92FB6
:1005D000F0E0ED5FFE4F8091320180839F5FF7FC7A
:1005E00008C0E92FF0E0ED5FFE4F8091330180837A
:1005F0009F5F36FD08C0E92FF0E0ED5FFE4F809170
:10060000340180839F5F35FD08C0E92FF0E0ED5F86
:10061000FE4F8091350180839F5F34FD08C0E92F34
:10062000F0E0ED5FFE4F8091360180839F5F33FDE8
:1006300008C0E92FF0E0ED5FFE4F80913701808325
:100640009F5F32FD08C0E92FF0E0ED5FFE4F809123
:10065000380180839F5FE92FF0E0ED5FFE4F10824D
:100660009F5F9E31C0F321D017FD01C08CDE212F8A
:10067000CE010197F1F7902F8F2D19CF80EA80934B
:10068000D80086E089BD09B400FEFDCF80E88093E4
:10069000D8001092E000109222018CE08093E200DA
:1006A00078940895809122010895809122018823F1
:1006B00091F12FB7F89483E08093E9009091E400E2
:1006C0009E5C33E08091E80085FD0EC02FBF8091D5
:1006D0002201882301F18091E4008917E1F02FB70E
:1006E000F8943093E900EECF809102018093F100FD
:1006F0001092F100E3E0F1E081918093F10081E05C
:10070000E132F807C9F78AE38093E80010922301E9
:100710002FBF80E008958FEF08951F920F920FB6BC
:100720000F9211242F938F939F93EF93FF938091B8
:10073000E1001092E100982F83FF0FC01092E900B2
:1007400081E08093EB001092EC0082E28093ED0058
:1007500088E08093F0001092220192FF34C08091D3
:100760002201882381F120910001222361F18091EF
:1007700024018F5F8093240190E083709070892B17
:1007800011F583E08093E9008091E80085FF1BC0AC
:10079000809123018F5F809323018217A1F410922F
:1007A0002301809102018093F1001092F100E3E0B7
:1007B000F1E081918093F10081E0E132F807C9F71F
:1007C0008AE38093E800FF91EF919F918F912F91A1
:1007D0000F900FBE0F901F9018951F920F920FB69B
:1007E0000F9211240F931F932F933F934F935F9377
:1007F0006F937F938F939F93AF93BF93EF93FF93E9
:100800001092E9008091E80083FF4EC14091F10011
:100810003091F1008091F100682F70E02091F1009B
:10082000922F80E0682B792B8091F100A82FB0E007
:100830002091F100922F80E0A82BB92B1091F100AC
:100840000091F10082EF8093E800363009F05AC041
:100850002BE730E0A90145505040F90137978591C9
:1008600094918617970701F5FA01859194918A175B
:100870009B07D1F49A012E5F3F4FF9016591749166
:100880002E5F3F4FF9014491212F30E0902F80E0FF
:10089000282B392B2F3F310519F010F02FEF30E0C6
:1008A000241758F4422F09C0295F3F4F495F5F4F1B
:1008B000F0E02C3A3F0789F6F7C05EEF8091E80040
:1008C000282F30E0C90185709070892BB9F322FD83
:1008D000EEC0342F413208F030E2232FCB0106C0A6
:1008E000FC010196E491E093F10021502223C1F72D
:1008F000630F711D431B5093E8004423F9F6303217
:10090000E9F2D5C0353061F48EEF8093E800809134
:10091000E80080FFFCCF862F80688093E300C7C08B
:10092000393031F5442309F071C0609322018EEF14
:100930008093E80085EA90E021E02093E900FC0143
:100940000196E491E093EB00EE2369F0AC014F5F78
:100950005F4FFC0184918093EC00CA010196FA017B
:1009600034913093ED002F5F253039F78EE149C087
:10097000383051F4403809F049C08091E80080FFD8
:10098000FCCF809122016EC03323D1F48091E80026
:1009900080FFFCCF423811F080E00DC0A093E90049
:1009A0008091EB0090E025E0969587952A95E1F7F8
:1009B00081701092E9008093F1001092F10070C0F4
:1009C000313011F0333011F5423001F56115710508
:1009D000E9F42A2F2F77822F81508430B8F48EEFDC
:1009E0008093E8002093E900333009F45DC089E189
:1009F0008093EB0081E090E002C0880F991F2A9558
:100A0000E2F78093EA001092EA0051C0AB2B09F0A4
:100A10004BC0413A51F53130A1F48091E80080FF9C
:100A2000FCCF809102018093F1001092F100E3E08D
:100A3000F1E081918093F10081E0E132F807C9F79C
:100A40002FC0323039F48091E80080FFFCCF8091D4
:100A5000000108C0333041F58091E80080FFFCCFF1
:100A6000809101018093F1001BC04132E9F43930DB
:100A700061F48091E80082FFFCCF8091F1008093C7
:100A800021018BEF8093E8000BC03A3029F470937A
:100A900000011092230104C03B3031F46093010146
:100AA0008EEF8093E80003C081E28093EB00FF911A
:100AB000EF91BF91AF919F918F917F916F915F91D6
:100AC0004F913F912F911F910F910F900FBE0F905B
:100AD0001F901895F999FECF92BD81BDF89A99277C
:100AE00080B50895262FF999FECF1FBA92BD81BD1A
:100AF00020BD0FB6F894FA9AF99A0FBE01960895A0
:040B0000F894FFCF97
:020B04007D0171
:00000001FF
