:10000000A3C00000BDC00000BBC00000B9C000001C
:10001000B7C00000B5C00000B3C00000B1C0000010
:10002000AFC00000ADC00000ABC000006BC7000057
:10003000C9C70000A5C00000A3C00000A1C0000007
:100040009FC000009DC000009BC0000099C0000040
:1000500097C000007AC3000093C0000091C0000068
:100060008FC000008DC000008BC0000089C0000060
:1000700087C0000000010000AB001200020000BDBC
:10008000002200220000DF003F00210000CF000915
:10009000000300001E0104010309042201100203F1
:1000A0000904340112000001C126001201000200FF
:1000B000000020C0167E0400010102000109022296
:1000C00000010100C0320904000001030001000921
:1000D0002111010001223F000705830320000105D3
:1000E000010906A101050719E029E7150025017599
:1000F00001950881027508950181030508190129F8
:100100000575019505910275039501910305071980
:100110000029FF150025FF7508951E8100C0040306
:10012000090410034D00660067004E0061006D0079
:100130006500000012034B006500790062006F004B
:10014000610072006400000011241FBECFEFD2E0F6
:10015000DEBFCDBF11E0A0E0B1E0EEEEF2E102C003
:1001600005900D92A830B107D9F711E0A8E0B1E0F1
:1001700001C01D92A634B107E1F727D50C9475098B
:100180003FCF82E280932F018EE1809330018FE494
:100190008093310180E58093320182E580933301C1
:1001A00081E58093340180EE8093350182EE809367
:1001B00036018CE28093370181EE809338018DE126
:1001C000809339018BE180933A0186E080933B0173
:1001D00089E180933C0188E280933D0183E1809333
:1001E0003E0180E480933F0185E3809340018BE2F0
:1001F0008093410189E280934201089583E28093D4
:100200002F018FE1809330018AE08093310187E0F4
:100210008093320185E18093330189E0809334013A
:1002200084E08093350186E18093360184E18093F8
:1002300037018AE1809338018CE0809339018EE0A8
:1002400080933A018DE080933B018FE080933C01E5
:1002500088E280933D0183E180933E0180E48093B6
:100260003F0185E3809340018BE28093410189E265
:1002700080934201089582E280932F018EE1809362
:1002800030018FE48093310180E58093320182E573
:100290008093330181E58093340180EE80933501B2
:1002A00082EE809336018CE28093370188E280935E
:1002B000380183E2809339018FE180933A018AE02B
:1002C00080933B0187E080933C0185E180933D0171
:1002D00089E080933E0184E080933F0186E1809332
:1002E000400184E18093410189E2809342010895B5
:1002F00084E280932F0180E2809330018FE080932D
:1003000031018DE0809332018CE0809333018EE0E7
:100310008093340184EE8093350185EE809336011D
:1003200088E28093370183E18093380185E28093EE
:10033000390181E280933A018EE580933B018CE59F
:1003400080933C0180E680933D018AE580933E01E5
:1003500082E680933F0183E68093400188E58093A5
:10036000410189E280934201089582E280932F0146
:100370008EE1809330018FE48093310180E580939A
:10038000320182E58093330181E58093340180EE70
:100390008093350184EE809336018CE2809337019F
:1003A00081EE809338018DE18093390185EE809351
:1003B0003A0188E380933B0184E180933C0188E229
:1003C00080933D0188E480933E0184E080933F0167
:1003D00084E3809340018BE28093410189E2809322
:1003E0004201089584E080932F0185E080933001DD
:1003F00086E08093310187E08093320188E080932A
:10040000330189E0809334018AE0809335018BE0E9
:10041000809336018CE0809337018DE08093380122
:100420008EE0809339018FE080933A0180E18093E0
:100430003B0181E180933C0182E180933D0183E1B6
:1004400080933E0184E180933F0185E180934001E8
:1004500086E18093410189E280934201089587E219
:1004600080932F018EE1809330018FE180933101E1
:1004700080E28093320181E28093330182E28093B3
:10048000340183E28093350184E28093360185E272
:100490008093370186E28093380184E080933901AC
:1004A00085E080933A0186E080933B0187E080936A
:1004B0003C0188E080933D0189E080933E018CE21D
:1004C00080933F0188E2809340018BE28093410159
:1004D00089E28093420108958FE480932F0180E5A3
:1004E0008093300182E58093310181E58093320170
:1004F00080EE8093330182EE809334018CE280930E
:10050000350181EE809336018DE18093370188E2D9
:10051000809338018AE08093390187E080933A0123
:1005200085E180933B0189E080933C0184E08093E6
:100530003D0186E180933E0184E180933F018AE1A1
:100540008093400186E08093410189E180934201DC
:1005500008958FE480932F0180E58093300182E538
:100560008093310181E58093320180EE80933301E5
:1005700082EE809334018CE28093350181EE80938A
:1005800036018DE18093370188E2809338018AE05B
:100590008093390187E080933A0185E180933B01A4
:1005A00089E080933C0184E080933D0186E1809363
:1005B0003E0184E180933F018AE18093400186E01F
:1005C0008093410189E18093420108958FE48093F3
:1005D0002F0180E58093300182E58093310181E530
:1005E0008093320180EE8093330182EE8093340158
:1005F0008CE28093350181EE809336018DE180930A
:10060000370188E2809338018AE08093390187E0DE
:1006100080933A0185E180933B0189E080933C011E
:1006200084E080933D0186E180933E0184E18093E4
:100630003F018AE18093400186E08093410189E196
:100640008093420108958FE480932F0180E5809389
:10065000300182E58093310181E58093320180EEA3
:100660008093330184EE809334018CE280933501D2
:1006700081EE809336018DE18093370188E280938B
:10068000380188E38093390185EE80933A0189E24D
:1006900080933B0184E380933C0184E080933D019F
:1006A0008BE280933E0184E180933F0182E280935C
:1006B00040018EE18093410188E4809342010895D6
:1006C00060DD10924201089599DD10924201089573
:1006D000D2DD1092420108950BDE1092420108957E
:1006E00044DE1092420108957DDE10924201089589
:1006F000B6DE10924201089510922F01109230013F
:100700001092310110923201109233011092340193
:100710001092350110923601109237011092380173
:100720001092390110923A0110923B0110923C0153
:1007300010923D0110923E0110923F011092400133
:10074000109241011092420108951F920F920FB62C
:100750000F9211242F933F934F935F938F939F9307
:10076000AF93BF938091020190910301A091040186
:10077000B09105018F5F9F4FAF4FBF4F61F18091E7
:10078000080190910901A0910A01B0910B01019615
:10079000A11DB11D8093080190930901A0930A0146
:1007A000B0930B01209108013091090140910A0199
:1007B00050910B018091020190910301A0910401DD
:1007C000B0910501281739074A075B0760F085B12A
:1007D00094E0892785B910920801109209011092BE
:1007E0000A0110920B01BF91AF919F918F915F9180
:1007F0004F913F912F910F900FBE0F901F90189522
:1008000060930201709303018093040190930501AA
:1008100060E070E0A0E9B1E009C088E592E0FD0188
:100820003197F1F70197D9F76F5F7F4F6217730721
:10083000A1F78FEF9FEFAFEFBFEF8093020190938F
:100840000301A0930401B093050188EC90E020E936
:1008500031E0F9013197F1F70197D9F708958091C7
:1008600045018150873018F081E08093450108955B
:10087000809145018130F9F480914401843091F0F8
:10088000853028F4823051F0833050F413C0863024
:1008900069F0863048F0873069F40AC0AFDC0BC0DD
:1008A000EADC09C025DD07C060DD05C09BDD03C0B3
:1008B000D6DD01C066DC80914501823049F480912B
:1008C0004401813021F0823011F443DE01C004DEA6
:1008D00080914501833049F480914401813021F0B9
:1008E000823011F442DD01C04CDC8091450184303E
:1008F00049F480914401813021F0823011F4A3DE6B
:1009000001C064DE80914501853061F4809144012D
:10091000823019F0833029F402C064DD03C09FDD0A
:1009200001C02FDC809145018630F9F480914401AB
:10093000843091F0853028F4823051F0833050F4C7
:1009400013C0863069F0863048F0873069F40AC0F9
:10095000BBDE0BC0BDDE09C0BFDE07C0C1DE05C007
:10096000C3DE03C0C5DE01C0ABDE80914501873028
:1009700031F480914401813009F4BECEBDCE08959A
:1009800085B5816085BDEEE6F0E080818160808381
:1009900084E084B916BC10920801109209011092EB
:1009A0000A0110920B018FEF9FEFAFEFBFEF809323
:1009B000020190930301A0930401B0930501789480
:1009C00062E270E080E090E021E030E040E050E062
:1009D00017DF14B808950F931F93CF93DF9380917F
:1009E00045018430A9F0853038F4823089F08330B5
:1009F00050F4813061F40CC0863051F0863028F01C
:100A0000873029F405C083E003C085E001C081E0A0
:100A100080930101809144018430A9F0853038F43D
:100A2000823089F0833050F4813061F40CC086301C
:100A300051F0863028F0873029F405C083E003C0E8
:100A400085E001C081E08093000180E28AB93091A5
:100A5000010120E060E240E951E011C06BB980E49F
:100A600096E0FA013197F1F70197D9F71BB880E4C6
:100A700096E0FA013197F1F70197D9F72F5F231725
:100A800068F380E48AB910E000E4C0E9D1E016C060
:100A90000BB980E496E0FE013197F1F70197D9F7A1
:100AA0001BB880E496E0FE013197F1F70197D9F782
:100AB00080914501863009F463DF1F5F809100015A
:100AC000181730F31AB88FEF8BB914B885B9DF91C6
:100AD000CF911F910F910895809144018430A1F02E
:100AE000853038F4823061F0833060F4813091F4E5
:100AF00005C0863069F0863048F00CC082E00BC03B
:100B000083E009C084E007C085E005C086E003C03B
:100B100087E001C081E080934401809145018230EB
:100B200021F0833011F0843029F480914401833026
:100B300089F40DC0853029F480914401843051F44A
:100B400006C0873039F480914401823019F481E085
:100B50008093440181E090E060914401B8D388DE45
:100B60003ADF80E49CE90197F1F70895809145010F
:100B70008430A1F0853038F4823061F0833060F445
:100B8000813091F405C0863069F0863048F00CC0A1
:100B900082E00BC083E009C084E007C085E005C0A7
:100BA00086E003C087E001C081E08093450182E0D8
:100BB00090E0609145018BD389E9809344018CDFFB
:100BC00080E49CE90197F1F70895AF92BF92DF921C
:100BD000EF92FF920F931F93CF93DF9320E8209320
:100BE00061001092610014B817B81AB88FEF85B978
:100BF00088B98BB980E090E00FB6F894209361003B
:100C0000809361000FBE84B7877F84BF88E10FB6F1
:100C1000F89480936000109260000FBE81E090E035
:100C20004ED38093440182E090E049D38093450104
:100C300016DE1EDED0DE17D12AD18823E9F380E14B
:100C400097E220E931E0F9013197F1F70197D9F7FF
:100C50009FEF2FEF8FEF30E9A32E31E0B32EC0E4EA
:100C6000DFE1D3B0E6B0F9B0D81629F4E91619F4EB
:100C7000F21609F4F2C03D2DD1FE02C020E005C0FD
:100C800080912F0180930D0121E030FD08C0E22FFB
:100C9000F0E0E35FFE4F8091300180832F5F9F2D56
:100CA000F6FC08C0E22FF0E0E35FFE4F80913101D7
:100CB00080832F5F95FD08C0E22FF0E0E35FFE4FD9
:100CC0008091320180832F5F94FD08C0E22FF0E015
:100CD000E35FFE4F8091330180832F5F93FD08C057
:100CE000E22FF0E0E35FFE4F8091340180832F5FBD
:100CF00092FD08C0E22FF0E0E35FFE4F80913501E6
:100D000080832F5F91FD08C0E22FF0E0E35FFE4F8C
:100D10008091360180832F5F90FD08C0E22FF0E0C4
:100D2000E35FFE4F8091370180832F5F9E2DE2FCB1
:100D300008C0E22FF0E0E35FFE4F8091380180832E
:100D40002F5F94FD08C0E22FF0E0E35FFE4F80913B
:100D5000390180832F5F95FD08C0E22FF0E0E35F4B
:100D6000FE4F80913A0180832F5F96FD08C0E22FED
:100D7000F0E0E35FFE4F80913B0180832F5FE7FC53
:100D800008C0E22FF0E0E35FFE4F80913C018083DA
:100D90002F5FD7FC08C0E22FF0E0E35FFE4F8091A9
:100DA0003D0180832F5F36FD08C0E22FF0E0E35F56
:100DB000FE4F80913E0180832F5F35FD08C0E22FFA
:100DC000F0E0E35FFE4F80913F0180832F5F34FDB1
:100DD00008C0E22FF0E0E35FFE4F80914001808386
:100DE0002F5F33FD08C0E22FF0E0E35FFE4F8091FC
:100DF000410180832F5F32FD08C0E22FF0E0E35F06
:100E0000FE4F8091420180832F5FF7FE02C000E019
:100E100013C030E009C0F9B088EE93E0F5013197D6
:100E2000F1F70197D9F73F5FF7FEF5CF3F3018F0A4
:100E300000E011E002C001E010E0E22FF0E0E35F2B
:100E4000FE4F10822F5F2E31C0F324D0002309F013
:100E500043DE112309F08ADE2F2DCE010197F1F731
:100E60008D2D9E2DFECE80EA8093D80086E089BD30
:100E700009B400FEFDCF80E88093D8001092E00016
:100E800010922C018CE08093E20078940895809178
:100E90002C01089580912C01882391F12FB7F894AB
:100EA00083E08093E9009091E4009E5C33E08091C0
:100EB000E80085FD0EC02FBF80912C01882301F131
:100EC0008091E4008917E1F02FB7F8943093E9009E
:100ED000EECF80910C018093F1001092F100EDE0D3
:100EE000F1E081918093F10081E0EB32F807C9F7DE
:100EF0008AE38093E80010922D012FBF80E00895CF
:100F00008FEF08951F920F920FB60F9211242F9317
:100F10008F939F93EF93FF938091E1001092E100F4
:100F2000982F83FF0FC01092E90081E08093EB00BF
:100F30001092EC0082E28093ED0088E08093F00054
:100F400010922C0192FF34C080912C01882381F1F2
:100F500020910601222361F180912E018F5F809301
:100F60002E0190E083709070892B11F583E08093BF
:100F7000E9008091E80085FF1BC080912D018F5F03
:100F800080932D018217A1F410922D0180910C0104
:100F90008093F1001092F100EDE0F1E081918093F7
:100FA000F10081E0EB32F807C9F78AE38093E800AB
:100FB000FF91EF919F918F912F910F900FBE0F9006
:100FC0001F9018951F920F920FB60F9211240F9336
:100FD0001F932F933F934F935F936F937F938F93C1
:100FE0009F93AF93BF93EF93FF931092E90080918B
:100FF000E80083FF4EC14091F1003091F1008091F3
:10100000F100682F70E02091F100922F80E0682BB2
:10101000792B8091F100A82FB0E02091F100922F60
:1010200080E0A82BB92B1091F1000091F10082EF24
:101030008093E800363009F05AC02BE730E0A90170
:1010400045505040F901379785919491861797073D
:1010500001F5FA01859194918A179B07D1F49A01C1
:101060002E5F3F4FF901659174912E5F3F4FF9015B
:101070004491212F30E0902F80E0282B392B2F3FF7
:10108000310519F010F02FEF30E0241758F4422FFB
:1010900009C0295F3F4F495F5F4FF0E02C3A3F079F
:1010A00089F6F7C05EEF8091E800282F30E0C90193
:1010B00085709070892BB9F322FDEEC0342F413238
:1010C00008F030E2232FCB0106C0FC010196E49129
:1010D000E093F10021502223C1F7630F711D431BE0
:1010E0005093E8004423F9F63032E9F2D5C03530A8
:1010F00061F48EEF8093E8008091E80080FFFCCFE0
:10110000862F80688093E300C7C0393031F54423CF
:1011100009F071C060932C018EEF8093E80085EA9E
:1011200090E021E02093E900FC010196E491E09336
:10113000EB00EE2369F0AC014F5F5F4FFC0184913F
:101140008093EC00CA010196FA0134913093ED00CE
:101150002F5F253039F78EE149C0383051F44038DF
:1011600009F049C08091E80080FFFCCF80912C01FC
:101170006EC03323D1F48091E80080FFFCCF423869
:1011800011F080E00DC0A093E9008091EB0090E0A9
:1011900025E0969587952A95E1F781701092E900F0
:1011A0008093F1001092F10070C0313011F03330B3
:1011B00011F5423001F561157105E9F42A2F2F77F9
:1011C000822F81508430B8F48EEF8093E800209312
:1011D000E900333009F45DC089E18093EB0081E0E0
:1011E00090E002C0880F991F2A95E2F78093EA00E9
:1011F0001092EA0051C0AB2B09F04BC0413A51F5B7
:101200003130A1F48091E80080FFFCCF80910C0187
:101210008093F1001092F100EDE0F1E08191809374
:10122000F10081E0EB32F807C9F72FC0323039F412
:101230008091E80080FFFCCF8091060108C0333028
:1012400041F58091E80080FFFCCF809107018093F9
:10125000F1001BC04132E9F4393061F48091E800BB
:1012600082FFFCCF8091F10080932B018BEF809364
:10127000E8000BC03A3029F47093060110922D015A
:1012800004C03B3031F4609307018EEF8093E80097
:1012900003C081E28093EB00FF91EF91BF91AF918A
:1012A0009F918F917F916F915F914F913F912F917E
:1012B0001F910F910F900FBE0F901F901895F999E5
:1012C000FECF92BD81BDF89A992780B50895262F4B
:1012D000F999FECF1FBA92BD81BD20BD0FB6F8941B
:0E12E000FA9AF99A0FBE01960895F894FFCF7E
:0812EE000101FFFFFFFF7D017C
:00000001FF
