:1000000083C00000B8C00000B6C00000B4C000004B
:10001000B2C00000B0C00000AEC00000ACC0000024
:10002000AAC00000A8C00000A6C000000C94C30C29
:10003000A2C00000A0C000009EC000009CC0000044
:100040009AC0000098C0000096C0000094C0000054
:1000500092C0000090C000008EC000008CC0000064
:100060008AC0000088C0000086C0000084C0000074
:1000700082C0000012011001000000085E040202AC
:100080000001000000010902200001010080320986
:100090000400000258420000070582032000040704
:1000A000050203080004040309041A036B0061003D
:1000B0006400650076006900630065002E0063003F
:1000C0006F006D00000040034B00410044004500FC
:1000D00020002D0020004B00690063006B00200011
:1000E0004100730073002000440079006E0061003D
:1000F0006D0069006300200045006E0063006F0022
:10010000640065007200000011241FBECFEFD2E032
:10011000DEBFCDBF04B603FE18C0809145019091AB
:100120004601A0914701B09148018A5C9C4AA244D3
:10013000BC4D59F4109245011092460110924701AE
:1001400010924801E0E0F0EF099511E0A0E0B1E085
:10015000EAE5F0E202C005900D92A230B107D9F7AE
:1001600011E0A2E0B1E001C01D92A534B107E1F7B2
:10017000CBD10C942B1044CF519A882311F4599869
:100180000895813009F4599A0895559A882311F4F5
:100190005D980895813009F45D9A089501C00000CA
:1001A0004D99FDCFE9DF01C000004D9BFDCF0895C3
:1001B00001C000004D99FDCF89B101C000004D9BE9
:1001C000FDCF90E082709070959587950895982F57
:1001D000482F50E0881F8827881F9170892791E059
:1001E00089279A01227030703595279582279A01C8
:1001F00024703070359527953595279582279A017B
:1002000028703070E3E035952795EA95E1F782276D
:100210009A012071307074E0359527957A95E1F751
:1002200082279A012072307065E0359527956A958E
:10023000E1F782274074507036E0559547953A951E
:10024000E1F7842708959F92AF92BF92CF92DF92F9
:10025000EF92FF920F931F93CF93DF93182FB7DF87
:10026000982E212F30E0C901827090709595879566
:10027000A82EC9018470907095958795959587955E
:10028000B82EC9018870907053E0959587955A955E
:10029000E1F7C82EC9018071907044E0959587956B
:1002A0004A95E1F7D82EC9018072907005E09595C6
:1002B00087950A95E1F7E82E20743070B6E0359501
:1002C0002795BA95E1F7F22E012F001F0027001F96
:1002D000C8E5D2E0117080E058DFCE010197F1F758
:1002E00080E04ADF81E051DF55985D9A812F56DF2B
:1002F0008A2D54DF8B2D52DF8C2D50DF8D2D4EDF5C
:100300008E2D4CDF8F2D4ADF802F48DF892D46DF71
:1003100081E044DF5198599A4BDF8823E1F6DF9161
:10032000CF911F910F91FF90EF90DF90CF90BF90F2
:10033000AF909F900895BF92CF92DF92EF92FF927D
:100340000F931F9335DF34DFB82E32DFC82E30DF36
:10035000182F2EDF082F2CDFF82E2ADFE82E28DFBB
:10036000D82E26DFCC0C110F110F1C291B29000FD2
:10037000000F000F012BF294A0EFFA22F02AE29472
:10038000EE0CF0EEEF22EF28D294DD0CDD0CE0EC69
:10039000DE22DE28082F0795002707950D2908DFA4
:1003A000182F06DF802F13DF181711F08EEF4BDFA9
:1003B000802F1F910F91FF90EF90DF90CF90BF9013
:1003C000089590911101892F8072880F880F809372
:1003D0000C01809113018093020180930E019071B2
:1003E000990F990F990F90930D01809112018093AD
:1003F000030180930F0108951F938BEE24DF9BDF91
:10040000109210010BC097DFE12FF0E0EF5EFE4F7E
:100410008083809110018F5F8093100110911001F3
:10042000133088F31F9108950F931F93CF93DF9399
:10043000EC018B018FEF07DF7EDF7DDF7CDF84EF58
:1004400002DF79DF88EEFFDE76DF209711F480E0AF
:100450000AC0C130D10511F481E005C0229711F422
:1004600082E001C083E0EFDE66DF83EFECDE63DF76
:100470000115110511F48AE01AC00130110511F4BB
:1004800084E115C00230110511F488E210C0033078
:10049000110511F48CE30BC00430110511F480E553
:1004A00006C00530110511F484E601C088ECCBDEEE
:1004B00080EFC9DE40DFDF91CF911F910F9108954A
:1004C0000E943F0CF89420E040E05AEFCA010197E7
:1004D000F1F72F5F2038D1F78AEC9CEAA2E4BCED5B
:1004E0008093450190934601A0934701B093480142
:1004F0002CE088E190E00FB6F894A8958093600016
:100500000FBE20936000FFCF2F923F924F925F92D9
:100510006F927F928F929F92AF92BF92CF92DF9213
:10052000EF92FF920F931F93DF93CF93CDB7DEB778
:10053000CD55D0400FB6F894DEBF0FBECDBF80E8DA
:10054000809361001092610014B817B81AB88FEF49
:1005500085B988B98BB914B1B7B1AAB175B168B111
:100560005BB180E68AB940E020E931E05D9880E443
:1005700091E0F9013197F1F70197D9F75E9880E49E
:1005800091E0F9013197F1F70197D9F75D9A80E48D
:1005900091E0F9013197F1F70197D9F75E9A80E47C
:1005A00091E0F9013197F1F70197D9F74F5F4430A6
:1005B000E9F614B9B7B9AAB975B968B95BB92B9698
:1005C0001FAE2B9700E010E0A5E1EA2EF12CEC0E17
:1005D000FD1EC8010E942310F701E00FF11F808368
:1005E0008E3119F08F3109F06AC0902F002319F471
:1005F00042983A9A0AC0013019F45898509A59C052
:10060000023019F45998519A54C0933019F45A98F9
:10061000529A4FC0943019F45B98539A4AC095305F
:1006200019F45C98549A45C0963019F45D98559A1F
:1006300040C0973019F45E98569A3BC0983019F430
:100640002898209A36C0993019F42998219A31C0F7
:100650009A3019F42A98229A2CC09B3019F42B98BE
:10066000239A27C09C3019F42C98249A22C09D30DC
:1006700019F42D98259A1DC09E3019F42E98269AAB
:1006800018C09F3019F45F98579A13C0903119F42D
:1006900047983F9A0EC0913119F446983E9A09C086
:1006A000923119F445983D9A04C0933111F444985D
:1006B0003C9A8F3121F421E02B962FAF2B970F5FBF
:1006C0001F4F0832110509F084CF89E290E00E94A3
:1006D0002310182F8AE290E00E9423102E968FAFED
:1006E0002E978BE290E00E94231029968FAF2997D6
:1006F0008DE290E00E942310F82E8EE290E00E949E
:100700002310082F8FE290E00E94231028968FAFCD
:10071000289781E390E00E94231027968FAF2797B8
:1007200087E390E00E94231026968FAF269788E3F8
:1007300090E00E94231025968FAF259789E390E0E3
:100740000E94231024968FAF24978AE390E00E94A2
:10075000231023968FAF23978BE390E00E94231002
:1007600022968FAF22978CE390E00E94231021966F
:100770008FAF21978DE390E00E9423108FAF2E96CC
:100780003FAD2E97353028F44FE02E964FAF2E9781
:1007900009C02E965FAD2E975B3F20F08AEF2E9614
:1007A0008FAF2E972B969FAD2B97913009F08CC071
:1007B000112309F489C020E0412F50E060E971E085
:1007C00008C080E197E2FB013197F1F70197D9F773
:1007D0002F5F822F90E0841795079CF320E030E094
:1007E000AE014B5E5F4FFA01E20FF31F80818F3144
:1007F00009F064C0822F222319F4429A3A9A0AC05F
:10080000213019F4589A509A59C0223019F4599A43
:10081000519A54C0833019F45A9A529A4FC0843076
:1008200019F45B9A539A4AC0853019F45C9A549A29
:1008300045C0863019F45D9A559A40C0873019F446
:100840005E9A569A3BC0883019F4289A209A36C08E
:10085000893019F4299A219A31C08A3019F42A9AD8
:10086000229A2CC08B3019F42B9A239A27C08C30F3
:1008700019F42C9A249A22C08D3019F42D9A259AB5
:100880001DC08E3019F42E9A269A18C08F3019F494
:100890005F9A579A13C0803119F4479A3F9A0EC055
:1008A000813119F4469A3E9A09C0823119F4459A69
:1008B0003D9A04C0833111F4449A3C9A2F5F3F4F14
:1008C0002832310509F08FCF29962FAD2997213095
:1008D00031F45E9A8F2D90E0602F70E0A5DD81E00D
:1008E000D0D639A53DAFCC2400E055242F961FAEBD
:1008F0002F9741E02C964FAF2C97F5E12F2E312CFE
:100900002C0E3D1EDD24DA9493D686B18470898343
:1009100089B181708A8389B182708B8389B1847037
:100920008C8389B188708D8389B180718E8389B100
:1009300080728F8389B18074888783B18170898741
:1009400083B182708A8783B184708B8783B188700A
:100950008C8783B180718D8783B180728E8783B1DC
:1009600080748F8783B18078888B86B18078898BFB
:1009700086B180748A8B86B180728B8B86B18071D0
:100980008C8B4F9B04C060961FAE609717C00023EE
:1009900089F45EEF550E87EF851508F400C680E0F8
:1009A0002F969FAD2F97992309F481E02F968FAF53
:1009B0002F97F5C521E060962FAF60973AEF351578
:1009C00008F053942F964FAD2F97413029F0609641
:1009D0005FAD60975EAF02C081E08EAFD10160E095
:1009E00070E030E000E02D961FAE2D972A961FAEE6
:1009F0002A97FF2440E050E0942FE1E0F0E0EC0F74
:100A0000FD1FE40FF51F8081882309F045C02EAD3E
:100A1000213011F0C42E03C0E4E1CE2EC40E2C917F
:100A20002B3129F481E02A968FAF2A970CC0F1016F
:100A3000EC0DF11D80818B3121F481E02A968FAF7E
:100A40002A972C3131F0F101EC0DF11D80818C31B0
:100A500011F4FF24F394F101EC0DF11DE081E1327A
:100A600061F0E23251F0E33209F49FC5E43209F457
:100A70009CC5E13031F461E00FC081E02D968FAF6D
:100A80002D97E23011F471E007C0E33011F431E04A
:100A900003C0E43009F401E08C918E3109F0B9C053
:100AA0002EAD213009F052C0992311F4429A51C061
:100AB000913011F4589A52C0923011F4599A53C09F
:100AC000933011F45A9A54C0943011F45B9A55C083
:100AD000953011F45C9A56C0963011F45D9A57C067
:100AE000973011F45E9A58C0983011F4289A59C082
:100AF000993011F4299A5AC09A3011F42A9A5BC09D
:100B00009B3011F42B9A5CC09C3011F42C9A5DC080
:100B10009D3011F42D9A5EC09E3011F42E9A5FC064
:100B20009F3019F45F9A579A74C0903111F4479A24
:100B300060C0913111F4469A61C0923111F4459A26
:100B400062C0933109F065C0449A62C0992319F4D8
:100B500042983A9A5EC0913019F45898509A59C008
:100B6000923019F45998519A54C0933019F45A9804
:100B7000529A4FC0943019F45B98539A4AC09530FA
:100B800019F45C98549A45C0963019F45D98559ABA
:100B900040C0973019F45E98569A3BC0983019F4CB
:100BA0002898209A36C0993019F42998219A31C092
:100BB0009A3019F42A98229A2CC09B3019F42B9859
:100BC000239A27C09C3019F42C98249A22C09D3077
:100BD00019F42D98259A1DC09E3019F42E98269A46
:100BE00018C09F3019F42F98279A13C0903119F428
:100BF00047983F9A0EC0913119F446983E9A09C021
:100C0000923119F445983D9A04C0933111F44498F7
:100C10003C9A4F5F5F4F11964431510509F0ECCE7D
:100C20002D964FAD2D97413039F42C965FAD2C9712
:100C300051952C965FAF2C97FF2031F43B016196C4
:100C40003FAF6197402E29C0313029F481E0619691
:100C50008FAF619704C061961FAE619780E06130ED
:100C600011F0662407C0882319F46624639401C038
:100C7000662481E0713011F0772407C0882319F4CD
:100C80007724739401C0772481E0013029F488230C
:100C900019F44424439401C0442429969FAD299714
:100CA000913011F4A9DB8DDB10921601109218011E
:100CB0001092190110921A0110921B0110921E013C
:100CC00010921F0110921C0110921D01109223011D
:100CD00010922201109221011092200110922701FE
:100CE0001092260110922501109224012DAD2D3174
:100CF00011F401E00BC000E0F101EC0DF11D808169
:100D00008D3109F401E03DAD303251F0F101EC0DCF
:100D1000F11D8081803221F062961FAE629704C07F
:100D200041E062964FAF629729965FAD29975130A7
:100D300009F080C028968FAD2897813009F0A8C0AF
:100D400020910E0126969FAD26979130B9F5822FFE
:100D5000835D8B3548F4822F992787FD909560ED50
:100D600072E00E9411100CC02E3234F08FEF9FE71A
:100D70009093270180932601233D34F480E090E88E
:100D8000909327018093260120910F01822F835D8C
:100D90008B3548F4822F992787FD909560ED72E09E
:100DA0000E941110BFC02E3234F08FEF9FE7909356
:100DB000250180932401233DECF5B2C0822F835D91
:100DC0008B3548F4822F992787FD909560ED72E06E
:100DD0000E9411100CC02E3234F08FEF9FE79093D9
:100DE000230180932201233D34F480E090E8909326
:100DF00023018093220120910F01822F835D8B3587
:100E000048F4822F992787FD909560ED72E00E944B
:100E100011100CC02E3234F08FEF9FE79093210118
:100E200080932001233D34F480E090E890932101E9
:100E300080932001212FEE24FF242A963FAD2A978C
:100E4000832F90E0AC014F5E5F4F68965FAF4EAF6F
:100E5000689742E150E0481B590B6A965FAF4EAF6E
:100E60006A97AC014B5E5F4F6C965FAF4EAF6C976D
:100E700046E150E0481B590B6E965FAF4EAF6E9740
:100E80006FEF862E6FE7962EA12C50E8B52E91C0FD
:100E900020910E0126965FAD2697513009F047C08C
:100EA000822F992787FD90956FEF70E00E941110B7
:100EB00090932701809326018153954734F08FEF5B
:100EC0009FE79093270180932601809126019091BE
:100ED0002701805D9A4834F480E090E890932701E0
:100EE0008093260180910F01992787FD90956FEFE0
:100EF00070E00E941110909325018093240181538A
:100F0000954734F08FEF9FE790932501809324015C
:100F10008091240190912501805D9A480CF08ACF40
:100F200080E090E8909325018093240183CF822F65
:100F3000992787FD90956FEF70E00E9411109093B4
:100F40002301809322018153954734F08FEF9FE76F
:100F5000909323018093220180912201909123019B
:100F6000805D9A4834F480E090E890932301809368
:100F7000220180910F01992787FD90956FEF70E016
:100F80000E94111090932101809320018153954775
:100F900034F08FEF9FE7909321018093200180919F
:100FA000200190912101805D9A480CF043CF3CCF05
:100FB000212FE1E0F0E0EC0FFD1FEE0DFF1D808121
:100FC000882311F0CE2C4FC18EAD813011F0CE2C84
:100FD00003C044E1C42ECE0CF101EC0DF11D1081D3
:100FE000112311F4122F3FC1002381F491E06916FF
:100FF00029F48091160181608093160121E0721618
:1010000029F48091160182608093160162963FADAB
:101010006297332391F461964FAD6197413029F483
:101020008091160184608093160151E0451629F4E1
:1010300080911601886080931601153019F4D092C2
:1010400018010EC0163019F4D092190109C01730DA
:1010500019F4D0921A0104C0183011F4D0921B0177
:101060002D968FAD2D97813019F52C969FAD2C972D
:10107000913099F4113219F4D09218010EC0123245
:1010800019F4D092190109C0133219F4D0921A013F
:1010900004C0143211F4D0921B0120E080EA9FE0DA
:1010A0000197F1F72F5F2E963FAD2E972317B0F3E0
:1010B000193019F4D0921E0128C01A3019F4D092B8
:1010C0001F0123C01B3019F4D0921C011EC01C301C
:1010D00019F4D0921D0119C01D3021F48091160120
:1010E000806111C01E3021F48091160180620BC016
:1010F0001F3021F480911601806405C0103129F45D
:1011000080911601806880931601812F90E0689687
:101110004EAD5FAD68978417950721F49092230137
:10112000809222016A962EAD3FAD6A97821793078F
:1011300021F4B0922301A0922201133129F4B0923C
:101140002101A092200106C0143121F490922101C6
:10115000809220016C964EAD5FAD6C978417950719
:1011600021F490922701809226016E962EAD3FAD1C
:101170006E978217930721F4B0922701A09226015F
:10118000173129F4B0922501A092240111C0183121
:1011900029F490922501809224010AC01A3141F469
:1011A000D0921E01D0921F01D0921C01D0921D013D
:1011B000193121F48091160180633DC0153211F47C
:1011C0007FD951C0163241F480911601806280931C
:1011D0001601D0921D0147C0173241F480911601CB
:1011E000806280931601D0921C013DC0183251F4E8
:1011F00080911601806280931601D0921E01D092D8
:101200001F0131C0193219F4809116010DC01A3234
:1012100029F480911601D0921F0106C01B3231F4CF
:1012200080911601D0921E01806A05C01C3231F4F3
:101230008091160180668093160115C01D3241F41D
:1012400080911601806280931601D092180109C026
:101250001E3249F480911601806280931601D0926B
:101260001C01D09219010894E11CF11C34E1E31631
:10127000F10409F09DCE29964FAD2997413009F030
:1012800075C1CC242A965FAD2A97852F90E09C01EA
:101290002F5E3F4F64963FAF2EAF649742E150E020
:1012A000481B590B66965FAF4EAF669735E1632ECC
:1012B000712C680E791E26E1822E912C881A990ACB
:1012C0009FEFA92E9FE7B92EE12C80E8F82E5EADA6
:1012D000513091F4CC2021F422961FAD22971FC0EB
:1012E00081E0C81621F421961FAD219718C092E025
:1012F000C916A9F41FAD13C0CC2021F425961FAD4B
:1013000025970DC021E0C21621F424961FAD249725
:1013100006C032E0C31619F423961FAD239711239C
:1013200009F41FC18091110180FF02C0CC2059F047
:1013300081FF03C041E0C41631F082FF12C152E0C8
:10134000C51609F00EC1153019F4D09218010EC05F
:10135000163019F4D092190109C0173019F4D0923F
:101360001A0104C0183011F4D0921B012D968FADD4
:101370002D97813019F52C969FAD2C97913099F4CB
:10138000113219F4D09218010EC0123219F4D09211
:10139000190109C0133219F4D0921A0104C0143291
:1013A00011F4D0921B0120E080EA9FE00197F1F751
:1013B0002F5F2E963FAD2E972317B0F3193019F4F7
:1013C000D0921E0128C01A3019F4D0921F0123C0F8
:1013D0001B3019F4D0921C011EC01C3019F4D0929D
:1013E0001D0119C01D3021F480911601806111C0CA
:1013F0001E3021F48091160180620BC01F3021F451
:1014000080911601806405C0103129F48091160185
:10141000806880931601812F90E064964EAD5FAD99
:1014200064978417950721F4B0922301A0922201BA
:1014300066962EAD3FAD66978217930721F4F09222
:101440002301E0922201133129F4F0922101E0926C
:10145000200106C0143121F4B0922101A092200194
:101460008615970521F4B0922701A09226018815D0
:10147000990521F4F0922701E0922601173129F411
:10148000F0922501E092240111C0183129F4B092A4
:101490002501A09224010AC01A3141F4D0921E0104
:1014A000D0921F01D0921C01D0921D01193121F45C
:1014B0008091160180633DC0153211F401D851C0EE
:1014C000163241F480911601806280931601D09209
:1014D0001D0147C0173241F480911601806280934C
:1014E0001601D0921C013DC0183251F480911601B2
:1014F000806280931601D0921E01D0921F0131C0EC
:10150000193219F4809116010DC01A3229F4809114
:101510001601D0921F0106C01B3231F480911601D2
:10152000D0921E01806A05C01C3231F480911601F0
:1015300080668093160115C01D3241F4809116011A
:10154000806280931601D092180109C01E3249F4BE
:1015500080911601806280931601D0921C01D09276
:101560001901C39433E0C31609F0B1CEBCD029965B
:101570004FAD2997413059F427965FAD27975130E9
:1015800019F488EE93E005C080EC9DE502C080E48C
:101590009FE10197F1F760960FAD6097B5C981E0C3
:1015A00060968FAF609755240CCA21E02D962FAF1F
:1015B0002D9772CADA01923049F0933061F0913080
:1015C000F9F4E4E7F0E022E130E01EC0E6E8F0E004
:1015D00020E230E019C0813049F0813018F08230CB
:1015E00079F408C0E6EAF0E0849107C0EAEAF0E0A6
:1015F000849103C0E6ECF0E08491282F30E004C031
:10160000E0E0F0E020E030E0ED93FC93C9010895C4
:10161000E0910601F0910701309709F009950895CE
:10162000E0910801F0910901309709F009950895BA
:10163000A8950895E4E1F1E084E2DF011D928A9526
:10164000E9F794E19093150180E18093280182E409
:101650008093290110922A0181E080932B018093CD
:101660002C0182E080932D0190932E0186E08093DF
:101670002F017C968FEF8193B1E0E833FB07D9F718
:101680000895882361F02FE088E190E00FB6F89488
:10169000A895809360000FBE2093600008C088E189
:1016A0000FB6F89480936000109260000FBEC2DF06
:1016B0005BD17894089580913C01843099F482E064
:1016C0008093E9008091E80080FF0CC084E191E004
:1016D00064E170E040E050E0D1D28091E8008E7784
:1016E0008093E8000895E7DF87C490913E01913030
:1016F000A1F480913D01813A91F58091E800877FC6
:101700008093E80084E191E064E170E0EDD18091A4
:10171000E8008B778093E800089580913D01813C3B
:10172000F1F49630E1F48091E800877F8093E8003F
:1017300088E291E060E170E0D7D18091E8008B779A
:101740008093E80081E090E090930B0180930A0180
:10175000E0910401F0910501309709F00995089591
:1017600082E061EC42E200C0382F282F2EC0822F89
:101770008F708093E900231721F4762F942F50E087
:1017800006C07091EC009091ED005091F00091FF37
:101790001BC08091EB008E7F8093EB008091ED0069
:1017A0008D7F8093ED008091EB0081608093EB0052
:1017B0007093EC009093ED005093F0008091EE0058
:1017C00087FD02C080E008952F5F253080F23F70D2
:1017D0003093E90081E0089580913D0188239CF4D5
:1017E00004C080913C018823B9F08091E80082FF19
:1017F000F8CF8091E8008B778093E800089580917E
:101800003C01882349F08091E80080FFF8CF809167
:10181000E8008E778093E80008954091E4005091AD
:10182000E50024E68091EC0080FF24C08091E80070
:1018300080FD1EC080913C01882311F482E0089550
:10184000853011F483E008958091EB0085FF02C09C
:1018500081E008958091E4009091E5008417950758
:1018600009F3222311F484E008952150AC01DACF6A
:1018700080E008958091E80082FFDCCFF9CF7DD031
:101880007FD0E0EEF0E0808181608083E8EDF0E0E1
:1018900080818F77808319BCE3E6F0E080818160EE
:1018A000808310923B010895DF93CF9300D0CDB792
:1018B000DEB763D065D08091D8008F778093D80051
:1018C0008091D80080688093D8008091D8008F7D67
:1018D0008093D80084E089BD86E089BD09B400FE0C
:1018E000FDCF10923C011092380110923A011092F3
:1018F000390180E091E060E0AE014F5F5F4F5ADE5A
:10190000892B31F0E981FA813796E491E093000167
:101910008091000190E028E030E040E003C04F5F9C
:10192000220F331F28173907D0F34295407F4260BA
:1019300080E060E019DF8091E1008E7F8093E1001C
:101940008091E20081608093E2008091E2008860F3
:101950008093E2008091E0008E7F8093E0000F9002
:101960000F90CF91DF910895E3E6F0E080818E7FC4
:10197000808381E080933B0197CF1092E20008952D
:101980001092E10008951F920F920FB60F9211244A
:101990002F933F934F935F936F937F938F939F9377
:1019A000AF93BF93EF93FF938091E10082FF0AC052
:1019B0008091E20082FF06C08091E1008B7F8093DE
:1019C000E10019D38091E10080FF17C08091E2000F
:1019D00080FF13C08091E2008E7F8093E2008091AF
:1019E000E20080618093E2008091D8008062809361
:1019F000D80019BC10923C0113DE8091E10084FFF5
:101A00002DC08091E20084FF29C084E089BD86E07A
:101A100089BD09B400FEFDCF8091D8008F7D8093F1
:101A2000D8008091E1008F7E8093E1008091E200F8
:101A30008F7E8093E2008091E20081608093E200DB
:101A400080913801882331F48091E30087FD02C042
:101A500081E001C084E080933C01DADD8091E10007
:101A600083FF31C08091E20083FF2DC08091E100AF
:101A7000877F8093E10082E080933C0110923801DF
:101A80008091E1008E7F8093E1008091E2008E7F63
:101A90008093E2008091E20080618093E200809177
:101AA000000190E040E028E030E003C04F5F220FEB
:101AB000331F28173907D0F34295407F426080E0FA
:101AC00060E052DE98D2FF91EF91BF91AF919F916C
:101AD0008F917F916F915F914F913F912F910F90D7
:101AE0000FBE0F901F901895E82F40914301509121
:101AF00044014617570750F42E2F392FC901FC0116
:101B000080910001682F70E090E03DC06115710583
:101B100011F0AB01F1CF8091E8008E778093E8005F
:101B200040E050E0E9CF80913C018823F1F185301D
:101B3000F1F18091E80083FF02C081E00895809177
:101B4000E80082FD2CC08091E80080FF1CC08091DD
:101B5000F200282F30E007C081918093F1004150BE
:101B600050402F5F3F4F4115510519F02617370799
:101B700098F390E02617370709F491E08091E80088
:101B80008E778093E8004115510569F6992359F63F
:101B900006C080913C01882341F0853041F080915E
:101BA000E80082FFF6CF80E0089582E0089583E0A8
:101BB00008959C01409143015091440146175707F5
:101BC00038F4F90180910001682F70E090E040C086
:101BD0006115710511F0AB01F4CF8091E8008E77AB
:101BE0008093E80040E050E0ECCF80913C018823F6
:101BF00009F440C0853009F43FC08091E80083FFBC
:101C000002C081E008958091E80082FD2DC080919E
:101C1000E80080FF1DC08091F200282F30E008C04E
:101C200084918093F1003196415050402F5F3F4F97
:101C30004115510519F02617370790F390E0261744
:101C4000370709F491E08091E8008E778093E800EF
:101C50004115510551F6992341F606C080913C018A
:101C6000882341F0853041F08091E80082FFF6CF73
:101C700080E0089582E0089583E00895BF92CF92B6
:101C8000DF92EF92FF920F931F93CF93DF93182F62
:101C9000092F7B016A01C1DDB82E8823B1F5812FA0
:101CA000902F9C01E901C114D10439F0F601808123
:101CB0009181E81AF90AC80FD91F00E010E022C08C
:101CC0008091E80085FD16C08091E8008E778093B2
:101CD000E80092D1C114D10449F0F60180819181CC
:101CE000800F911F9183808385E010C096DD88234B
:101CF00049F00CC089918093F1000894E108F10843
:101D00000F5F1F4FE114F104D9F68B2DDF91CF91B6
:101D10001F910F91FF90EF90DF90CF90BF900895AB
:101D20000F931F93DF93CF93CDB7DEB7AC970FB66A
:101D3000F894DEBF0FBECDBFEDE3F1E08091F1007E
:101D4000819321E0E534F207C9F7CFDC8091E80008
:101D500083FF38C180913D0130913E01353009F457
:101D600087C0363040F43130C9F1313070F0333053
:101D700009F028C133C0383009F4F6C0393009F40D
:101D800005C1363009F01EC197C0803821F0823875
:101D900009F018C108C09091390180913A01882357
:101DA00099F0926011C0809141018F708093E90099
:101DB0008091EB0090E025E0969587952A95E1F7D4
:101DC000982F91701092E9008091E800877F8093AE
:101DD000E8009093F1001092F100D1C0882319F02F
:101DE000823009F0EFC090E08F719070009721F081
:101DF000029709F0E7C00CC080913F01813009F0E3
:101E0000E1C010923A01333069F580933A012AC05B
:101E100080913F01882331F5209141012F7009F411
:101E2000D1C02093E9008091EB0080FF1BC03330CC
:101E300021F48091EB00806213C08091EB008061FF
:101E40008093EB0081E090E002C0880F991F2A95F3
:101E5000E2F78093EA001092EA008091EB0088603C
:101E60008093EB001092E9008091E800877F8AC0A0
:101E7000882309F0A7C010913F011F770FB7F8948E
:101E80008091E800877F8093E800A6DC8091E800DD
:101E900080FFFCCF8091E3008078812B8093E3006A
:101EA00080688093E300112311F482E001C083E095
:101EB00080933C010FBF86C08058823008F082C0FA
:101EC00080913F019091400123E08C3D920709F001
:101ED00033C083E08C838AE28B837FB7F894DE0182
:101EE00015966EE040E050E011E2E62FF0E010932E
:101EF0005700849140FF03C082958F706F5F8F7091
:101F0000282F30E08A3018F0C901C79602C0C901F5
:101F1000C0968D939D934F5F5F4F4431510529F7D4
:101F20007FBF8091E800877F8093E800CE01039611
:101F30006AE270E0D9DD12C060914101AE014F5FED
:101F40005F4F38DBBC01009709F43CC08091E8008A
:101F5000877F8093E80089819A812BDE8091E80059
:101F60008B778093E8002EC0803861F58091E8007F
:101F7000877F8093E800809138018093F100809101
:101F8000E8008E778093E80027DC1CC08823D1F41A
:101F900090913F019230B0F48091E800877F809368
:101FA000E8009093380118DC80913801882331F4DF
:101FB0008091E30087FD02C081E001C084E080934E
:101FC0003C01CEDB8091E80083FF0AC08091EB00EA
:101FD00080628093EB008091E800877F8093E80027
:101FE000AC960FB6F894DEBF0FBECDBFCF91DF9198
:101FF0001F910F91089508951F9380913C018823AC
:1020000071F01091E9008091EC001092E90080914C
:10201000E80083FF01C084DE1F701093E9001F9168
:1020200008955527002480FF02C0060E571F660F33
:10203000771F6115710521F096958795009799F79F
:10204000952F802D0895F999FECF92BD81BDF89A04
:0A205000992780B50895F894FFCF9A
:02205A0008007C
:00000001FF
