:1000000018C1000033C1000031C100002FC1000041
:100010002DC100002BC1000029C1000027C1000034
:1000200025C1000024C100000C94960F1FC10000E0
:100030001DC100001BC1000019C1000017C1000054
:1000400015C1000013C1000011C100000FC1000064
:100050000DC100000BC1000009C1000007C1000074
:1000600005C1000003C1000001C10000FFC0000085
:10007000FDC00000FBC00000F9C00000F7C0000098
:10008000F5C00000F3C00000F1C00000EFC00000A8
:10009000EDC00000EBC00000E9C00000E7C00000B8
:1000A000E5C00000E3C00000E1C000000000000166
:1000B000000F06FE0000000000000000FF00447278
:1000C00065616D6361737420436F6E74726F6C6CE5
:1000D00065722020202020202020202050726F6474
:1000E00075636564204279206F7220556E64657275
:1000F000204C6963656E73652046726F6D205345B1
:10010000474120454E5445525052495345532C4C7B
:1001100054442E2020202020AE01F40105010905C1
:10012000A10115002501350045017501950D050951
:100130001901290D81029503810105012507463B1F
:1001400001750495016514093981426500950181A5
:100150000126FF0046FF00093009310932093575D3
:1001600008950481020600FF0920092109220923BC
:10017000092409250926092709280929092A092BFB
:10018000950C81020A21269508B1020A21269102C6
:1001900026FF0346FF03092C092D092E092F751090
:1001A00095048102C012011001000000401000827D
:1001B000000100010200011201100100000040C412
:1001C00010C08201000102000109022900010100A2
:1001D00080FA090400000203000000092111010057
:1001E0000122890007050203400001070581034041
:1001F000000104030904200341006B00690073003F
:1002000068006F00700020004300750073007400E8
:100210006F006D007300000018035000530033009E
:10022000360030002B002000760031002E00320016
:10023000000011241FBECFEFDAE0DEBFCDBF11E01A
:10024000A0E0B1E0E0EDF6E202C005900D92A6312B
:10025000B107D9F711E0A6E1B1E001C01D92AC35BC
:10026000B107E1F70E94E20D0C946613C9CE2F93FB
:100270002FB72F931F994CC23F9327E02A95F1F790
:10028000000000000000000000000000000000006E
:100290000000000000000000000033B133FB27F92C
:1002A000000000000000000033B137FB26F9000019
:1002B000000000000000000033B133FB25F900000E
:1002C00000000000000033B137FB24F900000000FB
:1002D00000000000000033B133FB23F900000000F0
:1002E0000000000033B137FB22F9000000000000DD
:1002F0000000000033B133FB21F9000000000000D2
:10030000000033B137FB20F90000000000000000BE
:1003100020933A0133B133FB27F9000000000000BD
:10032000000033B137FB26F9000000000000000098
:10033000000033B133FB25F900000000000000008D
:1003400033B137FB24F9000000000000000000007A
:1003500033B133FB23F9000000000000000033B18B
:1003600037FB22F90000000000000000000033B15C
:1003700033FB21F9000000000000000033B137FB1F
:1003800020F900000000000000002093390133B183
:1003900033FB27F9000000000000000033B137FBF9
:1003A00026F90000000000000000000033B133FB1C
:1003B00025F9000000000000000033B137FB24F9EC
:1003C0000000000000000000000033B133FB23F9FF
:1003D000000000000000000033B137FB22F90000EC
:1003E000000000000000000033B133FB21F90000E1
:1003F00000000000000033B137FB20F900000000CE
:10040000000000002093380133B133FB27F90000CE
:1004100000000000000033B137FB26F900000000A7
:1004200000000000000033B133FB25F9000000009C
:100430000000000033B137FB24F900000000000089
:100440000000000033B133FB23F90000000000007E
:10045000000033B137FB22F900000000000000006B
:10046000000033B133FB21F9000000000000000060
:1004700033B137FB20F9000000000000000020939A
:100480003701000033B133FB27F900000000000002
:10049000000033B137FB26F9000000000000000027
:1004A000000033B133FB25F900000000000000001C
:1004B00033B137FB24F90000000000000000000009
:1004C00033B133FB23F9000000000000000033B11A
:1004D00037FB22F90000000000000000000033B1EB
:1004E00033FB21F9000000000000000033B137FBAE
:1004F00020F9000000000000000020933E0133B10D
:1005000033FB27F9000000000000000033B137FB87
:1005100026F90000000000000000000033B133FBAA
:1005200025F9000000000000000033B137FB24F97A
:100530000000000000000000000033B133FB23F98D
:10054000000000000000000033B137FB22F900007A
:10055000000000000000000033B133FB21F900006F
:1005600000000000000033B137FB20F9000000005C
:100570000000000020933D0133B133FB27F9000058
:1005800000000000000033B137FB26F90000000036
:1005900000000000000033B133FB25F9000000002B
:1005A0000000000033B137FB24F900000000000018
:1005B0000000000033B133FB23F90000000000000D
:1005C000000033B137FB22F90000000000000000FA
:1005D000000033B133FB21F90000000000000000EF
:1005E00033B137FB20F90000000000000000209329
:1005F0003C0133B133FB27F900000000000000008C
:1006000033B137FB26F900000000000000000000B5
:1006100033B133FB25F9000000000000000033B1C6
:1006200037FB24F90000000000000000000033B197
:1006300033FB23F9000000000000000033B137FB5A
:1006400022F90000000000000000000033B133FB7D
:1006500021F9000000000000000033B137FB20F951
:10066000000000000000000020933B01000033B1B7
:1006700033FB27F9000000000000000033B137FB16
:1006800026F90000000000000000000033B133FB39
:1006900025F9000000000000000033B137FB24F909
:1006A0000000000000000000000033B133FB23F91C
:1006B000000000000000000033B137FB22F9000009
:1006C000000000000000000033B133FB21F90000FE
:1006D00000000000000033B137FB20F900000000EB
:1006E0000000000020933F012FEF209336011F9B55
:1006F000FECF1B9BFCCF1F9BFACF1B9BF8CF1F9BF2
:10070000F6CF1B9BF4CF1F9BF2CF1B9BF0CF3F91EB
:100710002F912FBF2F911895CF92DF92EF92FF92DA
:100720000F931F93CF93DF932FB12095237369B15C
:1007300053B150955077FC0188E08283178211866F
:1007400012861086108211821586138616861486EC
:10075000128A118A108A178680E8838384838583AE
:100760008683148A138A168A158A108E178A128E27
:10077000118E80912D0130E0882349F121FF03C0C3
:1007800010922E011CC024FF02C081E003C025FF8F
:1007900004C082E080932E0112C020FF10C080911F
:1007A0000D01882361F080912C01882321F481E0E0
:1007B00080932C0102C010922C0110920D0154FF65
:1007C00056C110922D0181E080930D0150C121FF8F
:1007D00033C080912E018823B9F4C90180729070D2
:1007E00024FF07C0892B61F487E082838FEF878322
:1007F0006EC0892B29F081E082838FEF87837EC0D2
:1008000012828FEF878385C0813051F41482C90131
:100810008072907024FD37C0892B09F47AC072C0B1
:10082000823051F41682C9018072907024FD3DC05F
:10083000892B09F46EC06BC020FF3EC080912E0151
:100840008823C1F4C9018072907024FF07C0892BEE
:1008500061F485E082838FEF818739C0892B29F08D
:1008600083E082838FEF818749C084E082838FEFAA
:1008700081874FC0813081F44FEF4483C90180727A
:10088000907024FF04C0892B09F043C026C0892B37
:1008900009F43FC043833DC0823071F44FEF46837B
:1008A000C9018072907024FF03C0892B91F51BC091
:1008B000892B79F145832DC024FF17C080912E012B
:1008C000882339F425FD25C086E082838FEF828757
:1008D00020C0813021F425FD1CC013821AC0823053
:1008E00021F425FD16C0158214C025FF12C0809189
:1008F0002E01882329F482E082838FEF808709C04C
:10090000813019F48FEF838304C0823011F48FEFAC
:100910008583962F9095292F30E041E0C42ED12C6D
:10092000C222D32290FF05C08081816080838FEF37
:10093000828B82E0E82EF12CE222F32221FF05C017
:100940008081886080838FEF8787890104701070B1
:1009500022FF05C08081806280838FEF868723FF1E
:1009600005C08081806180838FEF8587E901C07138
:10097000D07024FF05C08081826080838FEF818BDF
:10098000B9016072707025FF05C08081846080832A
:100990008FEF808BD901A074B07026FF05C08081D5
:1009A000806880838FEF848797FF05C08081806493
:1009B00080838FEF8387452F50E09A01207130703C
:1009C00044FF03C081818260818345FF44C0CC2005
:1009D00041F0EF2831F0012B21F081E080932D01CF
:1009E0001EC0CD2B69F0672BD1F0108215861386BF
:1009F00016861486128A118A108A178684E011C01E
:100A0000672B69F0AB2B59F010821586138616867A
:100A10001486128A118A108A178688E002C08181A2
:100A200081608183232BB9F020912F013091300117
:100A300081E02C32380740F080912C01882321F48A
:100A40008181806181830BC02F5F3F4F30933001E4
:100A500020932F0104C01092300110922F0146FF05
:100A600006C081818061818381E080932C01DF91C8
:100A7000CF911F910F91FF90EF90DF90CF9008954D
:100A800084B1807784B985B1876085B9239A1CBC0D
:100A90008CB580648CBD8CB580628CBD8CB5886053
:100AA0008CBD8CB584608CBD2F9827980895982FA5
:100AB00027988DB581118EB59EBD90E025E008C0C8
:100AC000822F8A95F1F79F5F993C11F48AEA089585
:100AD0000DB407FEF5CF6111279A8EB508952F92B8
:100AE0003F924F925F926F927F928F929F92AF92BE
:100AF000BF92CF92DF92EF92FF920F931F93CF930B
:100B0000DF93882E81E090E020E80FB6F8942093E0
:100B10006100809361000FBEB3DF00E0BB24BA9494
:100B200080E8982E15E3612EB3E77B2EA9E75A2EB5
:100B3000F1E44F2EECEF3E2E7BEF272E2798BEBC24
:100B40001899FCCF9FB190959373A9B0A09413B15D
:100B500010951077B0920101B092020190920301BA
:100B60009092040190920501909206011092160154
:100B700010921701109218011092190110921A0187
:100B800010921B0110921C0110921D0110921E0167
:100B900010921F01109220011092210180912D01CD
:100BA000492F50E0882349F191FF03C010922E0194
:100BB0001CC094FF02C081E003C095FF04C082E026
:100BC00080932E0112C090FF10C080910D018823E8
:100BD00061F080912C01882321F481E080932C0125
:100BE00002C010922C0110920D0114FFBDC1109291
:100BF0002D0181E080930D01B7C191FF22C080914A
:100C00002E018823A1F48FEE80930101B092180188
:100C10009A012072307094FF05C0232B09F087C021
:100C20008FE65DC0232B09F482C08FEC74C0813045
:100C300019F4109204012CC0823019F410920601AC
:100C400038C040FF41C080912E018823E9F4909183
:100C50000101892F8F7B80930101B09219019A01C4
:100C60002072307044FF07C0232B09F060C09F73CF
:100C70009093010136C0232B09F459C09F799093BA
:100C80000101B092160153C0813079F4B092040191
:100C90009A012072307044FF04C0232B09F047C032
:100CA00027C0232B09F443C03BC0823069F4B092C3
:100CB00006019A012072307044FF03C0232BB9F55E
:100CC0001EC0232BA1F131C044FF1CC080912E0116
:100CD000882351F445FD2BC0809101018F778093CB
:100CE0000101B092170123C0813029F445FD1FC0D6
:100CF000109203011CC0823029F445FD18C01092E7
:100D0000050115C045FF13C080912E01882331F4E1
:100D1000809101018F7D80930101B3CF813019F45F
:100D2000B092030104C0823011F4B09205012A2D63
:100D300030E061E0C62ED12CC222D322A0FE05C035
:100D40008FE780930201B0921B0152E0E52EF12C57
:100D5000E222F32221FF07C0809102018F7E80935F
:100D60000201B0921A01E901C470D07022FF07C0DD
:100D700080910201877F80930201B0921F0123FFBF
:100D800007C0809102018B7F80930201B0921E0107
:100D9000D901A071B07024FF07C0809102018F7B40
:100DA00080930201B0921C01B9016072707025FF3E
:100DB00007C0809102018F7D80930201B0921D01D6
:100DC000F901E074F07026FF07C0809102018D7F69
:100DD00080930201B0922101A7FE07C08091020119
:100DE0008E7F80930201B0922001412F50E09A0142
:100DF0002071307014FF05C080910101877F8093BE
:100E0000010145FFA2C0CC2041F0EF2831F0CD2BED
:100E100021F081E080932D0152C0AB2B39F1672B7B
:100E200009F44DC0B0920201909203019092040126
:100E300090920501909206011092160110921701EE
:100E4000109218011092190110921A0110921B01B0
:100E500010921C0110921D0110921E0110921F0190
:100E600010922001109221018DEF2CC0672B39F1D7
:100E7000EF2B29F1B09202019092030190920401AC
:100E8000909205019092060110921601109217019E
:100E9000109218011092190110921A0110921B0160
:100EA00010921C0110921D0110921E0110921F0140
:100EB00010922001109221012092010147C28091DD
:100EC00001018E7F8093010141C220912F01309159
:100ED00030012F30310590F180912C01882371F57C
:100EE00083E0881659F5809100018823A9F1B0921A
:100EF0000201909203019092040190920501909258
:100F0000060110921601109217011092180110920A
:100F1000190110921A0110921B0110921C011092DB
:100F20001D0110921E0110921F01109220011092BB
:100F3000210130920101109200010EC02F5F3F4F3E
:100F40003093300120932F0107C01092300110928E
:100F50002F0181E08093000146FF06C083E08816E0
:100F600019F481E080932C018FEF61E0A0DDF82E71
:100F700081E0F81609F0E2C180912201882309F48A
:100F800018C183EF61E093DD182F8AE561E08FDD02
:100F9000163409F48FC0173490F4133409F43FC0A9
:100FA000143430F41034D9F0113409F0C7C120C022
:100FB000143409F44DC0153409F0C0C168C01C34A4
:100FC00009F4A5C01D3420F4173409F0B7C194C04A
:100FD0001D3409F4BDC01F3409F0B0C1D6C080E093
:100FE00061E065DD082F80E061E061DD82E0D7C06F
:100FF00080912301813041F48FEF61E058DD8FEF64
:1010000061E055DD83E0CBC080E061E050DD80E051
:1010100061E04DDD80E061E04ADD80E090C080E08D
:1010200061E045DD082F80E061E041DD80E061E0C6
:101030003EDD80E061E03BDD80E061E038DD80E0C6
:1010400060E035DD002309F079C11092220176C1FC
:1010500080E061E02CDD082F80E061E028DD80E0A9
:1010600061E025DD80E061E022DD80E061E01FDD00
:1010700080E060E01CDD013029F4709207010093EC
:1010800023015CC1409207011092230157C183E004
:1010900061E00DDD082F82E061E009DD8091230130
:1010A000813009F080E061E002DD82E061E0FFDC98
:1010B00081E048C080E061E0FADC082F882359F421
:1010C00080E061E0F4DC81E061E0F1DC82E061E09D
:1010D000EEDC80E00DC0813009F030C180E061E0DD
:1010E000E6DC81E061E0E3DC81E061E0E0DC81E01E
:1010F00061E0DDDC8FE029C080E061E0D8DC80E0E9
:1011000061E0D5DC82E061E0D2DC80E0CFCF80E03E
:1011100061E0CDDC082F882341F480E061E0C7DC8A
:1011200080E061E0C4DC84E00AC0813009F006C1DF
:1011300080E061E0BCDC80E061E0B9DC87E061E098
:10114000B6DC80E061E0B3DC80E060E0B0DCF6C0FB
:101150008091080161E0ABDC809308018091090176
:1011600061E0A5DC809309018FEF61E0A0DC8FEFE7
:1011700061E09DDC8FEF61E09ADC8FEF60E097DC4F
:1011800070920701F0922301D9C05092070180E0CC
:1011900061E08DDC082F80E061E089DC80E061E0C7
:1011A00086DC80E061E083DC80E061E080DC8AE571
:1011B000CCCF8091070161E07ADC182F8AE561E0ED
:1011C00076DC80910701813449F48091010161E06E
:1011D0006EDC082F8091020160E069DC80910701DC
:1011E000833759F58091010161E061DC082F8A3A6B
:1011F00009F4A4C08091020161E059DC8A3A09F443
:101200009DC08091050161E052DC8A3A09F496C0E4
:101210008091060161E04BDC8A3A09F48FC080912D
:10122000030161E044DC8A3A09F488C0809104013A
:1012300060E03DDC8A3A09F481C08091070189377A
:1012400009F076C08091010161E031DC082F8A3A13
:1012500009F474C08091020161E029DC8A3A09F442
:101260006DC08091050161E022DC8A3A09F466C014
:101270008091060161E01BDC8A3A09F45FC080912D
:10128000030161E014DC8A3A09F458C0809104013A
:1012900061E00DDC8A3A09F451C08091160161E0E9
:1012A00006DC8A3A09F44AC08091170161E0FFDB4D
:1012B0008A3A09F443C08091180161E0F8DB8A3A68
:1012C00009F43CC08091190161E0F1DB8A3AB1F187
:1012D00080911A0161E0EBDB8A3A81F180911D0176
:1012E00061E0E5DB8A3A51F180911C0161E0DFDBCE
:1012F0008A3A21F180911B0161E0D9DB8A3AF1F051
:1013000080911E0161E0D3DB8A3AC1F080911F0118
:1013100061E0CDDB8A3A91F08091200161E0C7DB8A
:101320008A3A61F08091210160E0C1DB8A3A31F0B4
:10133000133421F4013011F400932201279803C0E3
:10134000862D8A95F1F71899F9CBFACF232B09F45A
:10135000FCCDBBCD85B1886885B984B1886884B976
:101360002F980000000000002B98000000000000F3
:1013700000002B9A000000002B98000000000000E5
:1013800000002B9A000000002B98000000000000D5
:1013900000002B9A000000002B98000000000000C5
:1013A00000002B9A00000000000000002F9A089512
:1013B0002F9A2B9A00000000000000002B980000DC
:1013C000000000000000000000002F980000000056
:1013D000000000002F9A00000000000000002F987D
:1013E00000000000000000002F9A00000000000034
:1013F0000000000000002B9A85B1886885B984B18F
:10140000877784B908952F9A0000000087FF02C0F3
:101410002B9A01C02B98000000002F9800000000BC
:1014200000002B9A0000000086FF02C02F9A01C026
:101430002F98000000002B980000000000002F9A59
:101440000000000085FF02C02B9A01C02B9800000D
:1014500000002F980000000000002B9A0000000000
:1014600084FF02C02F9A01C02F98000000002B9823
:101470000000000000002F9A0000000083FF02C05F
:101480002B9A01C02B98000000002F98000000004C
:1014900000002B9A0000000082FF02C02F9A01C0BA
:1014A0002F98000000002B980000000000002F9AE9
:1014B0000000000081FF02C02B9A01C02B980000A1
:1014C00000002F980000000000002B9A0000000090
:1014D00080FF02C02F9A01C02F98000000002B98B7
:1014E0000000000000000895EF92FF920F931F93F9
:1014F000E82EFF241BC00F2D10E0000F111F000F5E
:10150000111FF801E65CFE4F80817DDFF801E75C8A
:10151000FE4F808178DFF801E85CFE4F808173DF49
:10152000095C1E4FF80180816EDFF394FE1418F3FE
:101530001F910F91FF90EF900895EF92FF920F93FC
:101540001F93CF93DF93CCEAD0E085E080933701FF
:101550008CE180933A0120913A01E0903901809129
:10156000380190913701E226E826E926F3DE81E092
:10157000BBDF2396FE01F4908F2D45DF2197FE01FE
:101580001491812F40DF2197FE0104912197802F34
:101590003ADFFE0184911F2510271827E12633DF4B
:1015A0002496F1E0CC31DF0721F78E2D2CDF00DF10
:1015B000DF91CF911F910F91FF90EF9008951F93AE
:1015C0002FB139B143B188E08093370183E0809334
:1015D0003A0180E090E0A0E0B1E080933B0190937D
:1015E0003C01A0933D01B0933E018FEF9FEF90939C
:1015F000400180933F01109241011092420180E826
:101600008093430180934401809345018093460178
:101610002095237321FF08C08FEE9FEF9093400128
:1016200080933F011092440120FF0CC080913F0144
:10163000909140018F7D9093400180933F018FEF07
:101640008093440124FF0BC080913F0190914001A1
:101650008F7B9093400180933F011092430125FFBF
:101660000CC080913F01909140018F779093400191
:1016700080933F018FEF80934301842F8095807783
:1016800084FF09C080913F0190914001877F909332
:10169000400180933F013095232F34FF09C0809192
:1016A0003F01909140018B7F9093400180933F01D7
:1016B00025FF09C080913F01909140018D7F90935B
:1016C000400180933F0126FF03C08FEF80934101CB
:1016D00020FF09C080913F01909140019B7F909332
:1016E000400180933F0121FF09C080913F0190910B
:1016F00040019D7F9093400180933F0122FF03C0F2
:101700008FEF8093420110E020E030E0F901E95CC6
:10171000FE4F808118272F5F3F4F20313105B1F7F1
:1017200019DE84E0E1DE812F6EDE42DE1F91089536
:1017300020E880E090E00FB6F89420936100809359
:1017400061000FBE1092360185B7806885BF85B7EE
:10175000806885BF81E8809364002093650091E0F4
:1017600093BF80EC87B988B1806C88B984B18777E2
:1017700084B9229A85B1886885B92A9820936B002C
:101780009093680078948895809136018F3FD9F7BF
:10179000F894809138018F73803299F480913801E8
:1017A00090913901909338018093390180913701EC
:1017B000813011F4C2DE05C080913701893009F40F
:1017C000FEDE109236017894DECF84B7877F84BF27
:1017D00088E10FB6F89480936000109260000FBE0D
:1017E00081E090E020E80FB6F894209361008093A8
:1017F00061000FBE84B1807784B985B1866085B9F8
:1018000085B1867085B988B18F7388B981B38F73BC
:1018100081BB87B18F7387B980B38F7380BB729A96
:1018200076986A9A6E9A80B38C7C80BB81B383630E
:1018300081BB8AB11AB88BB18FEF8BB984B18F7825
:1018400084B985B1806785B908950895089581E0C8
:10185000809327010895109227010895EF92FF9237
:101860000F931F93DF93CF93CDB7DEB76B970FB670
:10187000F894DEBF0FBECDBFEDB6FEB68091550128
:10188000853009F496C0863020F4813009F0DBC041
:1018900007C0863009F456C0893009F0D4C0A0C012
:1018A00080915401813A09F0CEC080915601909107
:1018B00057018050934089F50DB71EB780915A01AA
:1018C00090915B012DB73EB7281B390B0FB6F894EA
:1018D0003EBF0FBE2DBF8DB79EB70196AC01DC0198
:1018E000EEE0F1E088E001900D928150E1F7809107
:1018F000E800877F8093E80060915A0170915B0156
:10190000CA015FD58091E8008B778093E8000FB61D
:10191000F8941EBF0FBE0DBF96C08E010F5F1F4F04
:10192000C8010E948C038091E800877F8093E800C3
:10193000C8016BE170E045D58091E8008B7780931A
:10194000E80081C080915401803809F07CC020916A
:10195000560130915701432F809135018F5F80935D
:1019600035012050314099F480915A0190915B01EA
:101970008830910511F0429751F4809131018F5FC9
:1019800080933101809132018F5F80933201423028
:1019900049F480915A0190915B018055914009F082
:1019A00052C018C0433009F04EC081E0809333012B
:1019B0004AC080915401882309F045C080913501C7
:1019C000882319F481E080933401809132018130C1
:1019D00009F039C0809131018F5F8093310133C0AC
:1019E00080915401882379F580913301882329F46B
:1019F000809131018F5F809331018091310184307A
:101A000010F1809126018823F1F4F8948091E00090
:101A100081608093E00016D280E49CE90197F1F7A1
:101A2000109231011092320172986E988CE291E01E
:101A300020E931E0F9013197F1F70197D9F783E017
:101A400080930C014CD80FB6F894FEBE0FBEEDBECD
:101A50006B960FB6F894DEBF0FBECDBFCF91DF916E
:101A60001F910F91FF90EF90089581E061EC42E3A8
:101A700061D182E060EC42E35DC10F931F93DF937D
:101A8000CF93CDB7DEB76B970FB6F894DEBF0FBE1E
:101A9000CDBF80915301843009F04CC082E0809327
:101AA000E9008091E80082FF2DC08091E80085FF69
:101AB00024C0CE01019668E070E040E050E04FD5D0
:101AC0003E983F98869887988B81813059F0823074
:101AD00071F0843089F0883011F4879A0EC0893013
:101AE00019F4879A3E9A09C08A3019F4879A3F9A66
:101AF00004C08C3011F4879A869A8091E8008B7725
:101B00008093E80081E08093E9008091E80080FF05
:101B100011C08E010F5F1F4FC8010E948C03C801C6
:101B20006BE170E040E050E06CD58091E8008E778A
:101B30008093E8006B960FB6F894DEBF0FBECDBF62
:101B4000CF91DF911F910F91089580E090E020E800
:101B50000FB6F89420936100809361000FBECED140
:101B6000789480912701882311F180912801909128
:101B70002901A0912A01B0912B0180342DE0920718
:101B800023E0A20720E0B20760F40196A11DB11D79
:101B90008093280190932901A0932A01B0932B01EF
:101BA0000EC083B18095807551F0ADD008C0109201
:101BB00028011092290110922A0110922B015DDF59
:101BC00072D5CFCFEF92FF920F931F93FEDD80E48B
:101BD0009CE90197F1F789B1809580FF07C081E00A
:101BE00080932601EE24FF24870122C081FF12C0CA
:101BF00072986E988CE291E020E931E0F90131971A
:101C0000F1F70197D9F781E08093260183E0809373
:101C10000C010BC082FF02C08BDDE4CF84FFE2CF5A
:101C200081E08093260180910C010E946F05DACF3C
:101C300083B1887809F47CDD199907C080910C0183
:101C40000E946F05EE24FF2487010894E11CF11C1B
:101C5000011D111D80EEE81683E9F80684E00807EF
:101C600080E0180728F371DF80E090E01F910F916A
:101C7000FF90EF900895DA019330F1F0943030F452
:101C8000913071F0923009F036C005C0913249F1BF
:101C9000923289F52BC0E9ECF1E029E230E02FC067
:101CA00080913401882319F4E5EAF1E002C0E7EB02
:101CB000F1E022E130E023C0813049F0813018F0BA
:101CC0008230C9F40AC0E2EFF1E0849103C0E6EF8C
:101CD000F1E08491282F30E012C0E8E1F2E0849135
:101CE000F9CFEBEDF1E029E030E009C0ECE1F1E003
:101CF00029E830E004C0E0E0F0E020E030E0ED93DF
:101D0000FC93C901089580E189BD89B5826089BDD0
:101D100009B400FEFDCF8091D8008F7D8093D8005C
:101D20008091E00082608093E0008091E00081FD7E
:101D3000FCCF0895382F282F2CC02093E9002317BB
:101D400021F4762F942F50E006C07091EC00909112
:101D5000ED005091F00091FF1BC08091EB008E7F51
:101D60008093EB008091ED0082708093ED00809174
:101D7000EB0081608093EB007093EC009093ED009A
:101D80005093F0008091EE0087FD02C080E008953E
:101D90002F5F273090F23093E90081E00895809121
:101DA000540188239CF404C0809153018823B9F026
:101DB0008091E80082FFF8CF8091E8008B778093D4
:101DC000E800089580915301882349F08091E8004C
:101DD00080FFF8CF8091E8008E778093E800089527
:101DE0004091E4005091E50024E68091EC0080FFF2
:101DF00005C08091E80080FF05C022C08091E80006
:101E000082FD1EC080915301882311F482E0089561
:101E1000853011F483E008958091EB0085FF02C0C6
:101E200081E008958091E4009091E5008417950782
:101E3000E1F2222311F484E008952150AC01D5CFC2
:101E400080E0089566D06DD0E0EEF0E080818160A2
:101E50008083A8EDB0E08C918F778C9319BCE7ED6F
:101E6000F0E080818E7F80838C918F7E8C931092A6
:101E700052010895EF92FF920F931F934AD051D0D1
:101E800008ED10E0F8018081982F9F77908380689B
:101E9000808380818F7D808319BC109253011092C2
:101EA00051011092500110924F0180EEE82EF12C5A
:101EB000F70180818B7F8083F8018081816080833E
:101EC00080E060E042E336DFE1EEF0E080818E7F8B
:101ED0008083E2EEF0E08081816080838081886091
:101EE0008083F70180818E7F8083F801808180610B
:101EF00080831F910F91FF90EF900895E7EDF0E040
:101F00008081816080838AE482BF81E08093520176
:101F1000B1CFE8EDF0E080818E7F80831092E20007
:101F200008951092DA001092E10008951F920F9226
:101F30000FB60F9211242F933F934F935F936F939C
:101F40007F938F939F93AF93BF93EF93FF93809172
:101F5000E10082FF0AC08091E20082FF06C080910A
:101F6000E1008B7F8093E1002BD28091DA0080FF2B
:101F70001EC08091D80080FF1AC08091DA008E7F49
:101F80008093DA008091D90080FF0DC080E189BD87
:101F900089B5826089BD09B400FEFDCF81E08093E0
:101FA000530153DC04C019BC109253014FDC8091E3
:101FB000E10080FF18C08091E20080FF14C0809192
:101FC000E2008E7F8093E2008091E2008061809346
:101FD000E2008091D80080628093D80019BC85E02F
:101FE0008093530134DC8091E10084FF2EC0809106
:101FF000E20084FF2AC080E189BD89B5826089BD85
:1020000009B400FEFDCF8091D8008F7D8093D80069
:102010008091E1008F7E8093E1008091E2008F7ECD
:102020008093E2008091E20081608093E2008091E1
:102030005101882331F48091E30087FD02C081E0E3
:1020400001C084E08093530106DC8091E10083FFAE
:1020500022C08091E20083FF1EC08091E100877F53
:102060008093E10082E080935301109251018091AE
:10207000E1008E7F8093E1008091E2008E7F80936B
:10208000E2008091E20080618093E20080E060E005
:1020900042E350DE95D1FF91EF91BF91AF919F91B7
:1020A0008F917F916F915F914F913F912F910F9001
:1020B0000FBE0F901F9018950F931F93DF93CF9330
:1020C000CDB7DEB7AC970FB6F894DEBF0FBECDBF6D
:1020D0008091F100809354018091F100809355012B
:1020E0008091F1009091F100E6E5F1E080935601D6
:1020F000909357018091F1009091F10080935801E5
:1021000093838091F1009091F10080935A0195831F
:10211000A5DB8091E80083FF3AC1809154013091A2
:102120005501353009F487C0363040F43130C9F1FB
:10213000313070F0333009F02AC133C0383009F43F
:10214000F8C0393009F407C1363009F020C199C010
:10215000803821F0823809F01AC108C090914F01EF
:1021600080915001882399F0926011C080915801AC
:1021700087708093E9008091EB0090E025E09695D0
:1021800087952A95E1F7982F91701092E900809138
:10219000E800877F8093E8009093F1001092F100AF
:1021A000D3C0882319F0823009F0F1C090E08F711C
:1021B0009070009721F0029709F0E9C00CC080915F
:1021C0005601813009F0E3C010925001333069F5B7
:1021D000809350012AC080915601882331F52091C7
:1021E0005801277009F4D3C02093E9008091EB00D7
:1021F00080FF1BC0333021F48091EB00806213C05C
:102200008091EB0080618093EB0081E090E002C060
:10221000880F991F2A95E2F78093EA001092EA004E
:102220008091EB0088608093EB001092E900809130
:10223000E800877F8CC0882309F0A9C0109156015F
:102240001F770FB7F8948091E800877F8093E800AC
:10225000A6DD8091E80080FFFCCF8091E3008078CC
:10226000812B8093E3008091E30080688093E300FA
:10227000112311F482E001C083E0809353010FBF6A
:1022800086C08058823008F082C0809156019091BB
:10229000570123E08C3D920709F033C083E08C8323
:1022A0008AE28B837FB7F894DE0115966EE040E0FA
:1022B00050E011E2E62FF0E010935700849140FFC8
:1022C00003C082958F706F5F8F70282F30E08A3047
:1022D00018F0C901C79602C0C901C0968D939D939D
:1022E0004F5F5F4F4431510529F77FBF8091E80070
:1022F000877F8093E800CE0103966AE270E061D0A8
:1023000012C060915801AE014F5F5F4FB4DCBC0159
:10231000009709F43CC08091E800877F8093E80033
:1023200089819A81B4D08091E8008B778093E8000E
:102330002EC0803861F58091E800877F8093E800A7
:10234000809151018093F1008091E8008E77809315
:10235000E80025DD1CC08823D1F49091560192300D
:10236000B0F48091E800877F8093E800909351015A
:1023700016DD80915101882331F48091E30087FDBF
:1023800002C081E001C084E0809353016EDB809144
:10239000E80083FF0AC08091EB0080628093EB002D
:1023A0008091E800877F8093E800AC960FB6F894A0
:1023B000DEBF0FBECDBFCF91DF911F910F9108956A
:1023C00008959C0140915A0150915B0146175707AF
:1023D00018F4F90190E045C06115710511F0AB01E9
:1023E000F8CF8091E8008E778093E80040E050E0DD
:1023F000F0CF80915301882309F445C0853009F45A
:1024000044C08091E80083FF02C081E0089580917C
:10241000E80082FD32C08091E80080FF22C08091F8
:10242000F3009091F200782F60E0292F30E0262B06
:10243000372B07C081918093F100415050402F5FAE
:102440003F4F4115510519F02034310598F390E0C4
:102450002034310509F491E08091E8008E77809373
:10246000E8004115510529F6992319F606C0809117
:102470005301882341F0853041F08091E80082FFCC
:10248000F6CF80E0089582E0089583E008959C01EE
:1024900040915A0150915B014617570718F4F90112
:1024A00090E046C06115710511F0AB01F8CF809145
:1024B000E8008E778093E80040E050E0F0CF809114
:1024C0005301882309F447C0853009F446C0809140
:1024D000E80083FF02C081E008958091E80082FD5A
:1024E00034C08091E80080FF23C08091F300909178
:1024F000F200782F60E0292F30E0262B372B08C020
:1025000084918093F1003196415050402F5F3F4FAE
:102510004115510519F02034310590F390E0203435
:10252000310509F491E08091E8008E778093E8000E
:102530004115510521F6992309F0C1CF06C08091BC
:102540005301882341F0853041F08091E80082FFFB
:10255000F6CF80E0089582E0089583E00895BF9269
:10256000CF92DF92EF92FF920F931F93CF93DF935F
:10257000182F092F7B016A0133DCB82E8823B1F5AF
:10258000812F902F9C01E901C114D10439F0F6018B
:1025900080819181E81AF90AC80FD91F00E010E084
:1025A00022C08091E80085FD16C08091E8008B77FD
:1025B0008093E800C114D10449F0F6018081918133
:1025C000800F911F9183808385E011C06CD008DC5F
:1025D000882349F00CC08091F10089930894E108A8
:1025E000F1080F5F1F4FE114F104D9F68B2DDF9135
:1025F000CF911F910F91FF90EF90DF90CF90BF9000
:102600000895BF92CF92DF92EF92FF920F931F93A4
:10261000CF93DF93182F092F7B016A01E1DBB82EDE
:102620008823B1F5812F902F9C01E901C114D104B9
:1026300039F0F60180819181E81AF90AC80FD91F93
:1026400000E010E022C08091E80085FD16C0809176
:10265000E8008E778093E800C114D10449F0F601B8
:1026600080819181800F911F9183808385E011C0CB
:102670001AD0B6DB882349F00CC089918093F10011
:102680000894E108F1080F5F1F4FE114F104D9F637
:102690008B2DDF91CF911F910F91FF90EF90DF90E5
:1026A000CF90BF9008951F9380915301882361F0CC
:1026B0001091E9001092E9008091E80083FF01C0C9
:1026C000FBDC17701093E9001F910895F894FFCF79
:1026D00001FFFF8080808041FFFF3B010401212634
:0626E000020400000000EE
:00000001FF
