:10000000E1C00000FBC00000F9C00000F7C0000024
:10001000F5C00000F3C00000F1C00000EFC0000018
:10002000EDC00000EBC000000C94120AE7C0000015
:10003000E5C00000E3C00000E1C00000DFC0000038
:10004000DDC00000DBC00000D9C00000D7C0000048
:10005000D5C00000D3C00000D1C00000CFC0000058
:10006000CDC00000CBC00000C9C00000C7C0000068
:10007000C5C00000C3C00000C1C00000BFC0000078
:10008000BDC00000BBC00000B9C00000B7C0000088
:10009000B5C00000B3C00000B1C00000AFC0000098
:1000A000ADC00000ABC00000A9C0000005010905FB
:1000B000A10115002501350045017501950D0509C2
:1000C0001901290D81029503810105012507463B90
:1000D0000175049501651409398142650095018116
:1000E0000126FF0046FF0009300931093209357544
:1000F00008950481020600FF09200921092209232D
:10010000092409250926092709280929092A092B6B
:10011000950C81020A21269508B1020A2126910236
:1001200026FF0346FF03092C092D092E092F751000
:1001300095048102C01201100100000040100082ED
:10014000000100010200011201100100000040C482
:1001500010C0820100010200010902290001010012
:1001600080FA0904000002030000000921110100C7
:1001700001228900070502034000010705810340B1
:10018000000104030904200341006B0069007300AF
:1001900068006F0070002000430075007300740059
:1001A0006F006D00730000001A035000530033000D
:1001B000360030002B002000760031002E00300089
:1001C0003000000011241FBECFEFDAE0DEBFCDBF4C
:1001D00011E0A0E0B1E0E8ECFBE102C005900D9277
:1001E000A431B107D9F711E0A4E1B1E001C01D923B
:1001F000A134B107E1F76ED70C94E20D01CF2FB116
:100200002095237369B153B150955077FC0188E074
:1002100082831782118612861086108211821586BB
:10022000138616861486128A118A108A178680E829
:100230008383848385838683148A138A168A158A26
:10024000108E178A128E118E80912B0130E0882338
:1002500049F121FF03C010922C011CC024FF02C0F1
:1002600081E003C025FF04C082E080932C0112C00E
:1002700020FF10C080910B01882361F080912A013A
:10028000882321F481E080932A0102C010922A0180
:1002900010920B0154FF23C110922B0181E0809337
:1002A0000B01089521FF33C080912C018823B9F4FC
:1002B000C9018072907024FF07C0892B61F487E028
:1002C00082838FEF87836EC0892B29F081E0828340
:1002D0008FEF87837EC012828FEF878385C0813046
:1002E00051F41482C9018072907024FD37C0892BAB
:1002F00009F47AC072C0823051F41682C90180724A
:10030000907024FD3DC0892B09F46EC06BC020FFA6
:100310003EC080912C018823C1F4C9018072907085
:1003200024FF07C0892B61F485E082838FEF8187EA
:1003300039C0892B29F083E082838FEF818749C000
:1003400084E082838FEF81874FC0813081F44FEF4B
:100350004483C9018072907024FF04C0892B09F086
:1003600043C026C0892B09F43FC043833DC082307F
:1003700071F44FEF4683C9018072907024FF03C06F
:10038000892B91F51BC0892B79F145832DC024FF62
:1003900017C080912C01882339F425FD25C086E003
:1003A00082838FEF828720C0813021F425FD1CC01D
:1003B00013821AC0823021F425FD16C0158214C0A4
:1003C00025FF12C080912C01882329F482E08283CA
:1003D0008FEF808709C0813019F48FEF838304C0C9
:1003E000823011F48FEF8583962F9095292F30E07E
:1003F00090FF05C08081816080838FEF828BB9017F
:100400006270707021FF05C08081886080838FEFEB
:10041000878722FF05C08081806280838FEF868777
:1004200023FF05C08081806180838FEF858724FF53
:1004300005C08081826080838FEF818B25FF05C09E
:100440008081846080838FEF808B26FF05C0808150
:10045000806880838FEF848797FF05C080818064E8
:1004600080838FEF8387452F50E09A012071307091
:1004700044FF03C081818260818345FF20C0818168
:1004800081608183672B41F181E080932B0124C03F
:1004900020912D0130912E0181E02C32380740F05F
:1004A00080912A01882321F48181806181830BC09E
:1004B0002F5F3F4F30932E0120932D0104C01092E7
:1004C0002E0110922D0146FF0AC081818061818337
:1004D00081E080932A010895232B89F3D9CF0895D1
:1004E000239A1CBC8CB580648CBD8CB580628CBD9D
:1004F0008CB588608CBD8CB584608CBD0895982FB8
:100500002F9A8DB581118EB59EBD90E025E008C073
:10051000822F8A95F1F79F5F993C11F48AEA08953A
:100520000DB407FEF5CF61112F988EB508953F9257
:100530004F925F926F927F928F929F92AF92BF92F3
:10054000CF92DF92EF92FF920F931F93C82E81E01C
:1005500090E020E80FB6F89420936100809361004A
:100560000FBE84B1807784B985B1876085B9B8DF63
:10057000279A2F9A00E0FF24FA94F0E8DF2EE5E3B3
:10058000AE2E73E7B72E69E7962E51E4852E4CEF19
:10059000742E3FE7632E2FEE522E9FEC492E8FE6EE
:1005A000382E2F9AFEBC1899FCCF9FB1909593736B
:1005B000F9B1F095E3B1E095E077F0920101F092A6
:1005C0000201D0920301D0920401D0920501D09291
:1005D000060110921401109215011092160110924A
:1005E0001701109218011092190110921A0110921D
:1005F0001B0110921C0110921D0110921E011092FD
:100600001F0180912B01492F50E0882349F191FF70
:1006100003C010922C011CC094FF02C081E003C0F3
:1006200095FF04C082E080932C0112C090FF10C09F
:1006300080910B01882361F080912A01882321F4A5
:1006400081E080932A0102C010922A0110920B01CE
:10065000E4FF54C110922B0181E080930B014EC145
:1006600091FF23C080912C018823A9F450920101AD
:10067000F09216019A012072307094FF06C0232B6D
:1006800009F089C03092010160C0232B09F483C0B6
:10069000409201012AC0813019F4109204012CC04B
:1006A000823019F41092060138C040FF41C0809199
:1006B0002C018823E9F490910101892F8F7B80938D
:1006C0000101F09217019A012072307044FF07C0B7
:1006D000232B09F060C09F739093010136C0232B38
:1006E00009F459C09F7990930101F092140153C00D
:1006F000813079F4F09204019A012072307044FF45
:1007000004C0232B09F047C027C0232B09F443C0A2
:100710003BC0823069F4F09206019A012072307079
:1007200044FF03C0232BB9F51EC0232BA1F131C018
:1007300044FF1CC080912C01882351F445FD2BC03F
:10074000809101018F7780930101F092150123C000
:10075000813029F445FD1FC0109203011CC0823076
:1007600029F445FD18C01092050115C045FF13C0BE
:1007700080912C01882331F4809101018F7D809339
:100780000101B3CF813019F4F092030104C082302B
:1007900011F4F09205012F2F30E0F0FF04C06092B9
:1007A0000201F0921901B9016270707021FF07C057
:1007B000809102018F7E80930201F092180122FF46
:1007C00007C080910201877F80930201F0921D0192
:1007D00023FF07C0809102018B7F80930201F0927A
:1007E0001C0124FF07C0809102018F7B80930201CE
:1007F000F0921A0125FF07C0809102018F7D80933E
:100800000201F0921B0126FF07C0809102018D7F3B
:1008100080930201F0921F01F7FF07C0809102014F
:100820008E7F80930201F0921E014E2F50E09A01BC
:1008300020713070E4FF05C080910101877F8093B3
:10084000010145FF4CC0809101018E7F8093010121
:10085000672B09F445C281E080932B0141C22091AE
:100860002D0130912E012F30310590F180912A0118
:10087000882371F583E0C81659F58091000188231B
:10088000A9F1F0920201D0920301D0920401D0921A
:100890000501D092060110921401109215011092D8
:1008A000160110921701109218011092190110925E
:1008B0001A0110921B0110921C0110921D0110923E
:1008C0001E0110921F0170920101109200010EC0D2
:1008D0002F5F3F4F30932E0120932D0107C01092C0
:1008E0002E0110922D0181E08093000146FF06C089
:1008F00083E0C81619F481E080932A018FEF61E04C
:10090000FEDDE82E81E0E81609F0E2C180912001C9
:10091000882309F418C183EF61E0F1DD182F8AE51F
:1009200061E0EDDD163409F48FC0173490F4133410
:1009300009F43FC0143430F41034D9F0113409F004
:10094000C7C120C0143409F44DC0153409F0C0C12A
:1009500068C01C3409F4A5C01D3420F4173409F014
:10096000B7C194C01D3409F4BDC01F3409F0B0C133
:10097000D6C080E061E0C3DD082F80E061E0BFDD2C
:1009800082E0D7C080912101813041F48FEF61E096
:10099000B6DD8FEF61E0B3DD83E0CBC080E061E0E6
:1009A000AEDD80E061E0ABDD80E061E0A8DD80E00D
:1009B00090C080E061E0A3DD082F80E061E09FDD72
:1009C00080E061E09CDD80E061E099DD80E061E055
:1009D00096DD80E060E093DD002309F079C110929C
:1009E000200176C180E061E08ADD082F80E061E0CF
:1009F00086DD80E061E083DD80E061E080DD80E035
:100A000061E07DDD80E060E07ADD013029F4B092C4
:100A10000701009321015CC180920701109221011E
:100A200057C183E061E06BDD082F82E061E067DDA4
:100A300080912101813009F080E061E060DD82E099
:100A400061E05DDD81E048C080E061E058DD082FB5
:100A5000882359F480E061E052DD81E061E04FDD00
:100A600082E061E04CDD80E00DC0813009F030C1F2
:100A700080E061E044DD81E061E041DD81E061E052
:100A80003EDD81E061E03BDD8FE029C080E061E098
:100A900036DD80E061E033DD82E061E030DD80E082
:100AA000CFCF80E061E02BDD082F882341F480E088
:100AB00061E025DD80E061E022DD84E00AC0813074
:100AC00009F006C180E061E01ADD80E061E017DD39
:100AD00087E061E014DD80E061E011DD80E060E04E
:100AE0000EDDF6C08091080161E009DD8093080108
:100AF0008091090161E003DD809309018FEF61E0DE
:100B0000FEDC8FEF61E0FBDC8FEF61E0F8DC8FEF64
:100B100060E0F5DCB0920701E0922101D9C090922B
:100B2000070180E061E0EBDC082F80E061E0E7DCBA
:100B300080E061E0E4DC80E061E0E1DC80E061E055
:100B4000DEDC8AE5CCCF8091070161E0D8DC182F8C
:100B50008AE561E0D4DC80910701813449F4809119
:100B6000010161E0CCDC082F8091020160E0C7DC6C
:100B700080910701833759F58091010161E0BFDC65
:100B8000082F8A3A09F4A4C08091020161E0B7DC21
:100B90008A3A09F49DC08091050161E0B0DC8A3A8F
:100BA00009F496C08091060161E0A9DC8A3A09F453
:100BB0008FC08091030161E0A2DC8A3A09F488C009
:100BC0008091040160E09BDC8A3A09F481C0809145
:100BD0000701893709F076C08091010161E08FDC5F
:100BE000082F8A3A09F474C08091020161E087DC21
:100BF0008A3A09F46DC08091050161E080DC8A3A8F
:100C000009F466C08091060161E079DC8A3A09F452
:100C10005FC08091030161E072DC8A3A09F458C038
:100C20008091040161E06BDC8A3A09F451C0809143
:100C3000140161E064DC8A3A09F44AC0809115012C
:100C400061E05DDC8A3A09F443C08091160161E0FD
:100C500056DC8A3A09F43CC08091170161E04FDC10
:100C60008A3AB1F18091180161E049DC8A3A81F158
:100C700080911B0161E043DC8A3A51F180911A01B5
:100C800061E03DDC8A3A21F18091190161E037DCB5
:100C90008A3AF1F080911C0161E031DC8A3AC1F0BE
:100CA00080911D0161E02BDC8A3A91F080911E0158
:100CB00061E025DC8A3A61F080911F0160E01FDC71
:100CC0008A3A31F0133421F4013011F400932001F9
:100CD0002F9A03C08A2D8A95F1F7189962CCFACF22
:100CE000232B09F4FCCDBBCD84B7877F84BF88E17B
:100CF0000FB6F89480936000109260000FBE81E000
:100D000090E020E80FB6F894209361008093610092
:100D10000FBE84B1807784B985B1866085B985B10D
:100D2000867085B988B18F7388B981B38F7381BBA1
:100D300087B18F7387B980B38F7380BB729A7698AF
:100D40006A9A6E9A80B38C7C80BB81B3836381BBCB
:100D50008AB11AB88BB18FEF8BB984B18F7884B90F
:100D600085B1806785B908950895089581E08093DD
:100D700025010895109225010895EF92FF920F9397
:100D80001F93DF93CF93CDB7DEB76B970FB6F89471
:100D9000DEBF0FBECDBFEDB6FEB680913A01853005
:100DA00009F495C0863020F4813009F0D5C007C021
:100DB000863009F455C0893009F0CEC09EC08091BC
:100DC0003901813A09F0C8C080913B0190913C0102
:100DD0008050934089F50DB71EB780913F019091E7
:100DE00040012DB73EB7281B390B0FB6F8943EBF14
:100DF0000FBE2DBF8DB79EB70196AC01DC01ECE0B4
:100E0000F1E088E001900D928150E1F78091E800D7
:100E1000877F8093E80060913F0170914001CA0193
:100E20004CD58091E8008B778093E8000FB6F8945A
:100E30001EBF0FBE0DBF90C08E010F5F1F4FC801B8
:100E4000DED98091E800877F8093E800C8016BE1DC
:100E500070E033D58091E8008B778093E8007CC008
:100E600080913901803809F077C020913B013091A1
:100E70003C01432F809133018F5F809333012050D9
:100E8000314099F480913F01909140018830910563
:100E900011F0429751F480912F018F5F80932F01C1
:100EA000809130018F5F80933001423049F480910E
:100EB0003F01909140018055914009F04DC017C00D
:100EC000433009F049C081E08093310145C08091F1
:100ED0003901882309F040C080913301882319F437
:100EE00081E080933201809130018130A9F58091B9
:100EF0002F018F5F80932F012FC0809139018823AC
:100F000059F580913101882329F480912F018F5F59
:100F100080932F0180912F018430F0F0F89480911C
:100F2000E00081608093E00009D280E49CE90197B1
:100F3000F1F710922F011092300172986E988CE2A6
:100F400091E020E931E0F9013197F1F70197D9F704
:100F500083E080930A01EBDA0FB6F894FEBE0FBE71
:100F6000EDBE6B960FB6F894DEBF0FBECDBFCF912E
:100F7000DF911F910F91FF90EF90089581E061EC58
:100F800042E354D182E060EC42E350C10F931F93DF
:100F9000DF93CF93CDB7DEB76B970FB6F894DEBF74
:100FA0000FBECDBF80913801843009F04BC082E084
:100FB0008093E9008091E80082FF2DC08091E800D5
:100FC00085FF24C0CE01019668E070E040E050E06B
:100FD00042D53E983F98869887988B81813059F00A
:100FE000823071F0843089F0883011F4879A0EC015
:100FF000893019F4879A3E9A09C08A3019F4879A81
:101000003F9A04C08C3011F4879A869A8091E80048
:101010008B778093E80081E08093E9008091E8007D
:1010200080FF10C08E010F5F1F4FC801E8D8C801B4
:101030006BE170E040E050E060D58091E8008E7791
:101040008093E8006B960FB6F894DEBF0FBECDBF5D
:10105000CF91DF911F910F91089580E090E020E8FB
:101060000FB6F89420936100809361000FBEC2D147
:10107000789480912501882311F180912601909127
:101080002701A0912801B091290180342DE0920719
:1010900023E0A20720E0B20760F40196A11DB11D74
:1010A0008093260190932701A0932801B0932901F2
:1010B0000EC083B18095807551F0A1D008C0109208
:1010C00026011092270110922801109229015EDF5B
:1010D00066D5CFCF09DE80E49CE90197F1F789B1AD
:1010E000809580FF08C081E08093240120E030E0FB
:1010F00040E050E01DC081FF12C072986E988CE2F3
:1011000091E020E931E0F9013197F1F70197D9F742
:1011100081E08093240183E080930A0107C084FF6B
:10112000E5CF81E08093240180910A0100DADECFCF
:10113000199B06C083B190E083709070892B39F4BD
:1011400080910A01F4D920E030E040E050E02F5FC8
:101150003F4F4F4F5F4F203E83E9380784E04807F9
:1011600080E0580728F379DF80E090E00895DA0105
:101170009330F1F0943030F4913071F0923009F006
:1011800036C005C0913249F1923289F52BC0E9E5AC
:10119000F1E029E230E02FC080913201882319F478
:1011A000E5E3F1E002C0E7E4F1E022E130E023C052
:1011B000813049F0813018F08230C9F40AC0E2E889
:1011C000F1E0849103C0E6E8F1E08491282F30E05B
:1011D00012C0E8EAF1E08491F9CFEBE6F1E029E012
:1011E00030E009C0ECEAF0E029E830E004C0E0E0DB
:1011F000F0E020E030E0ED93FC93C901089580E138
:1012000089BD89B5826089BD09B400FEFDCF80919A
:10121000D8008F7D8093D8008091E0008260809319
:10122000E0008091E00081FDFCCF0895382F282F49
:101230002CC02093E900231721F4762F942F50E03F
:1012400006C07091EC009091ED005091F00091FF7C
:101250001BC08091EB008E7F8093EB008091ED00AE
:1012600082708093ED008091EB0081608093EB00B1
:101270007093EC009093ED005093F0008091EE009D
:1012800087FD02C080E008952F5F273090F23093F1
:10129000E90081E008958091390188239CF404C01D
:1012A000809138018823B9F08091E80082FFF8CF5F
:1012B0008091E8008B778093E80008958091380151
:1012C000882349F08091E80080FFF8CF8091E80002
:1012D0008E778093E80008954091E4005091E500F6
:1012E00024E68091EC0080FF05C08091E80080FF3B
:1012F00005C022C08091E80082FD1EC080913801A7
:10130000882311F482E00895853011F483E0089574
:101310008091EB0085FF02C081E008958091E40098
:101320009091E50084179507E1F2222311F484E0FF
:1013300008952150AC01D5CF80E0089566D06DD0DE
:10134000E0EEF0E0808181608083A8EDB0E08C91D8
:101350008F778C9319BCE7EDF0E080818E7F8083DE
:101360008C918F7E8C93109237010895EF92FF92AB
:101370000F931F934AD051D008ED10E0F8018081FF
:10138000982F9F7790838068808380818F7D808372
:1013900019BC10923801109236011092350110924A
:1013A000340180EEE82EF12CF70180818B7F808361
:1013B000F80180818160808380E060E042E336DF75
:1013C000E1EEF0E080818E7F8083E2EEF0E08081CC
:1013D00081608083808188608083F70180818E7F37
:1013E0008083F8018081806180831F910F91FF903D
:1013F000EF900895E7EDF0E08081816080838AE4DA
:1014000082BF81E080933701B1CFE8EDF0E08081C9
:101410008E7F80831092E20008951092DA0010927D
:10142000E10008951F920F920FB60F9211242F938F
:101430003F934F935F936F937F938F939F93AF935C
:10144000BF93EF93FF938091E10082FF0AC08091E8
:10145000E20082FF06C08091E1008B7F8093E10073
:101460002BD28091DA0080FF1EC08091D80080FFCF
:101470001AC08091DA008E7F8093DA008091D900C3
:1014800080FF0DC080E189BD89B5826089BD09B446
:1014900000FEFDCF81E08093380166DC04C019BCFA
:1014A0001092380162DC8091E10080FF18C08091C9
:1014B000E20080FF14C08091E2008E7F8093E20002
:1014C0008091E20080618093E2008091D800806288
:1014D0008093D80019BC85E08093380147DC809167
:1014E000E10084FF2EC08091E20084FF2AC080E1E9
:1014F00089BD89B5826089BD09B400FEFDCF8091A8
:10150000D8008F7D8093D8008091E1008F7E8093FA
:10151000E1008091E2008F7E8093E2008091E20002
:1015200081608093E20080913601882331F48091BC
:10153000E30087FD02C081E001C084E080933801B0
:1015400019DC8091E10083FF22C08091E20083FFDB
:101550001EC08091E100877F8093E10082E080934C
:101560003801109236018091E1008E7F8093E10076
:101570008091E2008E7F8093E2008091E2008061A2
:101580008093E20080E060E042E350DE95D1FF917D
:10159000EF91BF91AF919F918F917F916F915F91EB
:1015A0004F913F912F910F900FBE0F901F90189564
:1015B0000F931F93DF93CF93CDB7DEB7AC970FB6E2
:1015C000F894DEBF0FBECDBF8091F100809339014A
:1015D0008091F10080933A018091F1009091F100A7
:1015E000EBE3F1E080933B0190933C018091F100AB
:1015F0009091F10080933D0193838091F10090914F
:10160000F10080933F019583B8DB8091E80083FF70
:101610003AC18091390130913A01353009F487C0DF
:10162000363040F43130C9F1313070F0333009F0E8
:101630002AC133C0383009F4F8C0393009F407C181
:10164000363009F020C199C0803821F0823809F085
:101650001AC108C09091340180913501882399F016
:10166000926011C080913D0187708093E900809164
:10167000EB0090E025E0969587952A95E1F7982F65
:1016800091701092E9008091E800877F8093E800D4
:101690009093F1001092F100D3C0882319F08230AA
:1016A00009F0F1C090E08F719070009721F00297DF
:1016B00009F0E9C00CC080913B01813009F0E3C022
:1016C00010923501333069F5809335012AC080913D
:1016D0003B01882331F520913D01277009F4D3C0E7
:1016E0002093E9008091EB0080FF1BC0333021F490
:1016F0008091EB00806213C08091EB008061809349
:10170000EB0081E090E002C0880F991F2A95E2F774
:101710008093EA001092EA008091EB008860809349
:10172000EB001092E9008091E800877F8CC088234D
:1017300009F0A9C010913B011F770FB7F894809171
:10174000E800877F8093E800A6DD8091E80080FFB5
:10175000FCCF8091E3008078812B8093E30080911F
:10176000E30080688093E300112311F482E001C05C
:1017700083E0809338010FBF86C08058823008F024
:1017800082C080913B0190913C0123E08C3D920707
:1017900009F033C083E08C838AE28B837FB7F894AF
:1017A000DE0115966EE040E050E011E2E62FF0E039
:1017B00010935700849140FF03C082958F706F5F34
:1017C0008F70282F30E08A3018F0C901C79602C008
:1017D000C901C0968D939D934F5F5F4F4431510572
:1017E00029F77FBF8091E800877F8093E800CE01D2
:1017F00003966AE270E061D012C060913D01AE01D3
:101800004F5F5F4FB4DCBC01009709F43CC080918E
:10181000E800877F8093E80089819A81B4D0809125
:10182000E8008B778093E8002EC0803861F58091C6
:10183000E800877F8093E800809136018093F10073
:101840008091E8008E778093E80025DD1CC0882316
:10185000D1F490913B019230B0F48091E800877F01
:101860008093E8009093360116DD8091360188233D
:1018700031F48091E30087FD02C081E001C084E083
:10188000809338017BDB8091E80083FF0AC0809160
:10189000EB0080628093EB008091E800877F80936B
:1018A000E800AC960FB6F894DEBF0FBECDBFCF9167
:1018B000DF911F910F91089508959C0140913F0180
:1018C000509140014617570718F4F90190E045C0C0
:1018D0006115710511F0AB01F8CF8091E8008E77AA
:1018E0008093E80040E050E0F0CF809138018823F9
:1018F00009F445C0853009F444C08091E80083FFB5
:1019000002C081E008958091E80082FD32C080919C
:10191000E80080FF22C08091F3009091F200782FC0
:1019200060E0292F30E0262B372B07C08191809370
:10193000F100415050402F5F3F4F4115510519F0C4
:101940002034310598F390E02034310509F491E01A
:101950008091E8008E778093E8004115510529F6C3
:10196000992319F606C080913801882341F085300B
:1019700041F08091E80082FFF6CF80E0089582E098
:10198000089583E008959C0140913F0150914001EA
:101990004617570718F4F90190E046C06115710524
:1019A00011F0AB01F8CF8091E8008E778093E800CA
:1019B00040E050E0F0CF80913801882309F447C01F
:1019C000853009F446C08091E80083FF02C081E0C1
:1019D00008958091E80082FD34C08091E80080FF86
:1019E00023C08091F3009091F200782F60E0292FBE
:1019F00030E0262B372B08C084918093F10031967C
:101A0000415050402F5F3F4F4115510519F0203490
:101A1000310590F390E02034310509F491E0809194
:101A2000E8008E778093E8004115510521F699234F
:101A300009F0C1CF06C080913801882341F085307C
:101A400041F08091E80082FFF6CF80E0089582E0C7
:101A5000089583E00895BF92CF92DF92EF92FF92B4
:101A60000F931F93CF93DF93182F092F7B016A01E8
:101A700033DCB82E8823B1F5812F902F9C01E9012A
:101A8000C114D10439F0F60180819181E81AF90A74
:101A9000C80FD91F00E010E022C08091E80085FD4A
:101AA00016C08091E8008B778093E800C114D104C0
:101AB00049F0F60180819181800F911F918380838D
:101AC00085E011C06CD008DC882349F00CC08091FF
:101AD000F10089930894E108F1080F5F1F4FE114AA
:101AE000F104D9F68B2DDF91CF911F910F91FF90CB
:101AF000EF90DF90CF90BF900895BF92CF92DF928A
:101B0000EF92FF920F931F93CF93DF93182F092F1C
:101B10007B016A01E1DBB82E8823B1F5812F902F7C
:101B20009C01E901C114D10439F0F6018081918151
:101B3000E81AF90AC80FD91F00E010E022C080910E
:101B4000E80085FD16C08091E8008E778093E8005C
:101B5000C114D10449F0F60180819181800F911F59
:101B60009183808385E011C01AD0B6DB882349F0C9
:101B70000CC089918093F1000894E108F1080F5F8F
:101B80001F4FE114F104D9F68B2DDF91CF911F91F6
:101B90000F91FF90EF90DF90CF90BF9008951F932B
:101BA00080913801882361F01091E9001092E900DA
:101BB0008091E80083FF01C0FBDC17701093E900FF
:081BC0001F910895F894FFCF76
:101BC80001FFFF8080808041FFFF0401212602047D
:041BD8000000000009
:00000001FF
