:1000000039C0000057C1000050C000004EC00000C1
:100010004CC000004AC0000048C0000046C00000BC
:1000200044C0000042C0000040C000003EC00000CC
:100030003CC000003AC0000038C0000036C00000DC
:1000400034C0000032C0000030C000002EC00000EC
:100050002CC000002AC0000028C0000026C00000FC
:1000600024C0000022C0000020C000001EC000000C
:100070001CC0000011241FBECFEFD2E0DEBFCDBFF9
:1000800011E0A0E0B1E0EAE0F3E002C005900D92DB
:10009000A032B107D9F711E0A0E2B1E001C01D9292
:1000A000A134B107E1F702D02EC1AACF80E8809336
:1000B000610081E080936100789402D00BD0FFCF83
:1000C0005898E9E6F0E0808182608083DD24D39453
:1000D000FF24089581E08CBBE89A08954E2D5527A2
:1000E00047FD509527E030E03299FECFCA01022E3D
:1000F00002C0959587950A94E2F780FF02C0589850
:1001000001C0589A329BFECF215030408FEF2F3FD5
:10011000380751F73299FECF5898329BFECF489955
:1001200003C098EBF92E089580ECF82E089530E086
:1001300020E0329BFECF220F89B18170282B422F05
:10014000552747FD50950FC089B190E0842795272A
:1001500080FF09C0E22E489B03C058E6F52E0895A3
:1001600040EAF42E08953299EFCF3F5F383009F717
:10017000E22EDD2051F0589A329BFECF3299FECF0D
:10018000589830E8F32EDD24089528E8F22E0895DB
:10019000329B31C0E898FF2011F080E037C03299DF
:1001A000FECF20E030E0329BFECF89B18170220F7C
:1001B000282B482F50E00AC0992787FD90954817B3
:1001C000590711F089B112C089B181703299F4CF09
:1001D0003F5F383041F7822F8E7F843A39F4589A46
:1001E000329BFECF3299FECF589801C020E0822F7B
:1001F000222329F4FF2481E08CBBE89A089520FF94
:1002000003C078EAF72E02C060E6F62EE82E0895C5
:100210001F9311E08F2D883BA9F1893B6CF488383E
:10022000E1F0893824F4803809F040C018C0803AE1
:10023000D9F1883AD9F521C0883C91F1893C1CF468
:10024000803CA1F52DC0803619F0883679F528C09C
:10025000E0922001109340010CC0FF2427C0809140
:100260004001E82FF0E0E05EFE4FE0828F5F809378
:100270004001DD24D3945BDFCDCFE09000011093EB
:1002800040010AC080914001E82FF0E0E050FF4FAC
:10029000E0808F5F80934001DD24D3941FDFBACFCD
:1002A000DD24D394FF2404C073DFB4CFDD24D394C2
:1002B0001F9108951F920F920FB60F9211242F9342
:1002C0003F934F935F936F937F938F939F93AF93DE
:1002D000BF93EF93FF93FF2009F45ADF99DF81E08A
:1002E0008CBBE89AFF91EF91BF91AF919F918F9155
:1002F0007F916F915F914F913F912F910F900FBE22
:0A0300000F901F901895F894FFCF9E
:10030A00000102030405060708090A0B0C0D0E0F6B
:10031A00101112131415161718191A1B1C1D1E1F5B
:00000001FF
